S019000050726163746963654650425F52413645322E7372656369
S3150000000000040020211E0000B51C00002B1E00006D
S315000000102B1E00002B1E00002B1E00002B1E0000B6
S31500000020000000000000000000000000490600007B
S315000000302B1E00000000000061060000C90600003B
S31500000040AB180000B1140000090F00000B100000EF
S30D00000050AD100000BF11000015
S3150000005880B582B040F66410C2F200000068002144
S3150000006801AA019103F073F902B080BD022818BFF6
S31500000078704740F6280044F2F421C2F20000C0F2AC
S31500000088000101F005B9D4D440F6035540F69C06A4
S31500000098C4F20805C4F2080603F0E8F840F60011B1
S315000000A8C2F2000140F680040860C2F2000443F67A
S315000000B8EC11C0F20001204601F030FA204601F0AA
S315000000C8D9FB40F6307443F6FA7A4FF00008012758
S315000000D8C2F20004CFF6FE7A4FF0800B4FF000090B
S315000000E8002001214FF0FF3203F0D9F8EFF310801A
S315000000F887F31088216819B9402185F8008029708E
S3150000010821680131216080F31088306849F00401C4
S3150000011800EA0A00C9B208433060EFF3108087F39B
S315000001281088216811B1216801392160216819B93F
S3150000013885F8008085F800B080F3108889F00109F9
S31500000148CEE7D4D440F6035940F69806C4F2080917
S31500000158C4F2080603F08AF840F66411C2F20001F8
S3150000016840F618040860C2F2000443F6D401C0F24F
S315000001780001204601F036F9204601F073F940F6F1
S31500000188307543F6FA7B40F680044FF000080127E5
S31500000198C2F20005CFF6FE7BC2F200044FF0000A59
S315000001A8EFF3108087F31088296821B9402189F870
S315000001B8008089F8001029680131296080F31088C9
S315000001C8306800EA0B0040EA0A0040F0040030609C
S315000001D8EFF3108087F31088296811B1296801396F
S315000001E82960296821B9802189F8008089F80010DA
S315000001F880F31088204601F042FB41F28831204600
S31500000208BAF1000F04BF4AF22011C0F2070101F04B
S315000002183BFB204601F02EFB002001214FF0FF3268
S315000002288AF0010A03F03BF8BAE7D4D482B003F0A7
S315000002381DF840F6DC61C2F20001086040F63000A5
S3150000024843F64011C2F20000C0F2000101F066F95F
S3150000025840F65004C2F2000443F67011C0F20001E1
S31500000268204600F07BFB40F21840C2F20000002155
S31500000278017040F2194040F21A4540F21956C2F28E
S3150000028800000727C2F20005C2F20006017000BF8F
S315000002982046294632460123009700F0DDFC00205F
S315000002A801214FF0FF3202F0FAFFF1E70079012849
S315000002B824D140F2195040F21841C2F20000C2F2AD
S315000002C8000100780A7840F21863C2F200039854D5
S315000002D840F21940C2F2000001320378D0B29842C7
S315000002E80A7005D240F21871C2F20001085C00E0FB
S315000002F8002040F21A41C2F20001087010B582B01F
S3150000030840F6DC60C2F200000068002101AA0191F3
S3150000031803F01DF840F63004C2F20004204601F04E
S31500000328AEFA204601F0A6FA02B010BD007900B177
S315000003387047B0B582B040F63000C2F2000001F056
S315000003489EFA40F21840C2F20000017840F21942C3
S31500000358C2F200021170002140F218740170C2F254
S31500000368000440F21861C2F200012046FF2203F0A1
S315000003787CFA207840F21A4440F65005C2F200048E
S31500000388C2F200052070284600F06CFC43F6701196
S31500000398C0F20001284600F0E1FA40F219524FF087
S315000003A8070CC2F20002284621460123CDF800C0F8
S315000003B800F052FC02B0B0BD80B582B000790021D1
S315000003C8019138B940F60010C2F20000006801AA8F
S315000003D802F0BDFF02B080BD7047FFF7FDBF80B5D4
S315000003E884B040F67010C2F20000016840F6A00C16
S315000003F80131016041F2B010C2F200000121CDE9DD
S31500000408001040F2514043F6F06143F60C23C2F265
S31500000418000CC0F20000C0F20001C0F200034FF465
S315000004288072CDF808C002F0EBF940F60011C2F26E
S315000004380001086008B104B080BD0020002104B0A6
S31500000448BDE8804000F047B810B5044600F046F80D
S315000004582046BDE81040FFF717BE80B584B040F6C9
S315000004687010C2F20000016840F6041C01310160F8
S3150000047841F2B050C2F200000121CDE9001040F26D
S31500000488CD4043F6BC3144F2B013C2F2000CC0F2C0
S315000004980000C0F20001C0F200034FF48072CDF8EC
S315000004A808C002F0ADF940F66411C2F20001086016
S315000004B808B104B080BD0020002104B0BDE880402A
S315000004C800F009B810B5044600F008F82046BDE863
S315000004D81040FFF737BE00BE7047D4D4B0B540F61B
S315000004E86814C2F2000420684FF0FF3102F06CF87D
S315000004F8012803D020680021FFF7EDFF40F66C10B5
S31500000508C2F20000017801B1B0BD01210170FFF708
S3150000051864FF40F67015C2F2000500BF286801386E
S315000005282860F1D0206800210022002301F022FE75
S315000005380128F3D020680021FFF7CDFFEEE780B54C
S3150000054840F67010C2F200000021016040F66C10FF
S31500000558C2F2000040F674120170C2F200024FF4B3
S315000005688070012101F0E5FD40F66811C2F2000134
S31500000578086018B900200021FFF7ADFFFFF72FFF2D
S31500000588FFF76BFF00F01EF802F0CFFB002080BDDE
S3150000059840F6BC13C2F20003036040F61C20C2F208
S315000005A80000086080201060704740F61C43C2F2C5
S315000005B80003036040F67C40C2F200000860802019
S315000005C81060704780B584B040F67010C2F2000023
S315000005D8016840F67C6C0131016041F6B010C2F248
S315000005E800000121CDE9001040F2376043F624618E
S315000005F844F20033C2F2000CC0F20000C0F200015F
S31500000608C0F200034FF48072CDF808C002F0F8F883
S3150000061840F6DC61C2F20001086008B104B080BD92
S315000006280020002104B0BDE88040FFF754BF10B594
S315000006380446FFF753FF2046BDE81040FFF7F6BD16
S315000006481EF0040F0CBFEFF30880EFF30980014991
S3150000065808470000EF0600000F4B1968EFF3098200
S315000006681EF0100F08BF22ED108A22E9F04FEFF3B3
S315000006780B8342F8043D0A604FF0100080F311889E
S31500000688BFF34F8FBFF36F8F02F000FB4FF00000F0
S3150000069880F3118800F002B8AC0F00200748016803
S315000006A80A6802CA81F30B88B2E8F04F1EF0100FF1
S315000006B808BFB2EC108A82F309887047AC0F002095
S315000006C810B5EFF31184102080F3118802F0AAFB0D
S315000006D830B14EF60450CEF200004FF08051016062
S315000006E884F3118810BD806910F8020C022808BF2F
S315000006F8FFF7D4BF042838BF704780B543F63620C5
S3150000070843F6D65243F64133C0F20000C0F2000267
S31500000718C0F200034FF47E7101F07EFA283140F8EA
S31500000728481D40F24D71C0F200014FF0807C22F066
S315000007380102C1636FF002010264C0F844C0C0E957
S315000007480913704700BE00BFFEE7D4D44EF6225008
S31500000758CEF20000F021017000F016F84EF6347063
S31500000768CEF20000016841F04041016062B6BFF375
S315000007786F8FEFF3148C2CF0040C8CF31488BFF3F2
S315000007886F8F02DF00BEFDE740F65870C2F2000028
S31500000798006844F6D351C1F26201A0FB01014FF093
S315000007A8FF3000EB91110020B0EB116F18BF7047B6
S315000007B84EF21002CEF2000251604EF62351CEF2EE
S315000007C80001F0230B70906007201060704710211D
S315000007D8EFF3118081F3118840F6E061C2F200015F
S315000007E80A68531C0B605AB940F6E461C2F200016C
S315000007F808604EF60450CEF200000068C00500D12D
S31500000808704780B543F6362043F65C2243F64753D5
S31500000818C0F20000C0F20002C0F2000340F2A44198
S3150000082801F0FAF940F6E060C2F20000016859B139
S315000008380139016018BF704740F6E460C2F2000053
S31500000848006880F31188704780B543F6362044F275
S31500000858770243F61023C0F20000C0F20002C0F28D
S31500000868000340F2AD4101F0D7F988B14EF20C0011
S31500000878C4F20100B0F90010B1F1FF3F09DDBFF382
S315000008884F8F30BFBFF36F8F62B6BFF36F8F72B6ED
S31500000898704780B54EF2FE32C4F20102B2F800E0AB
S315000008A84AF2025CCFF6FF7C0023A2F800C0038060
S315000008B84EF425431380BFF34F8F30BFBFF36F8FBE
S315000008C862B6BFF36F8F72B61388A2F800C00180B4
S315000008D843F42540108080BD80B572B602F0B3F8A7
S315000008E80120FFF7C2FF62B6BDE8804002F006B9F4
S315000008F880B5EFF30380103840B2002806D44EF2D4
S315000009080041CEF20001405C0F2817D94EF60C5074
S31500000918CEF200000068400558BF80BD43F6362079
S3150000092843F6757243F6C833C0F20000C0F20002FF
S31500000938C0F2000340F2216101F06EF943F6362059
S3150000094843F6757244F22703C0F20000C0F20002B3
S31500000958C0F2000340F20F6101F05EF92DE9F04F95
S3150000096883B083464AF200080878C4F211080F6972
S3150000097808EB00200D4600F1040487B178684FF0B3
S31500000988006100680160786800688460D7E9011230
S315000009983868126890470646002840F05981686909
S315000009A8B8B141684FF4002209680A6041680968CD
S315000009B84C60D0E9011200681268904706462FB1CC
S315000009C826B1B9683868096A884741E1002E40F0BF
S315000009D83F81CBF80450A869B023CBF82400E86916
S315000009E8CBF82C000020CBF82800297808EB012149
S315000009F8CBF8081095F809A0AF7AEE7A6C7BBAF1B5
S31500000A08000F08BFB823296A47EA46070E7808BFC9
S31500000A18102047EA043E16B143F0010307E02E789A
S31500000A28012E04D8BAF1000F08BF4EF0800E4E789A
S31500000A388D787700CC7823EAC61347EA46173B43F6
S31500000A480A79019305FA04F302932EF0700320261F
S31500000A5843EA0413022A08BF30264C79002A08BF45
S31500000A6816460122012C08BF0322002C18BF10438A
S31500000A780A7A8F7902F00302012543EA8209BAF15C
S31500000A88000F009706D04FF0000E4FF000084FF009
S31500000A98000C07E091F809E091F80A8091F80BC07C
S31500000AA849F46049EFF3108485F31088DBF804A055
S31500000AB82B469AF8002044F20405C4F20805C2F150
S31500000AC813022F6803FA02F227EA02022A602A684A
S31500000AD884F31088DBF808200023D478D370DBF879
S31500000AE80820019C1470DBF80820029C5470DBF87F
S31500000AF808209670CA79DBF80840A272DBF808204D
S31500000B0882F80CE0DBF8082082F80D80DBF8082074
S31500000B1882F80EC0DBF80820D073DBF80800A0F8CE
S31500000B281090DBF80800009A80F82020DBF8040013
S31500000B38407A00284FF0100003D1097B012908BF2D
S31500000B481220DBF8081046F2003281F82100DBF8A3
S31500000B5804304EF2001193F9027040F63470CEF26A
S31500000B680001C4F20002002FC2F200001ED49B79D5
S31500000B78CE191B0186F8003340F827B052F8273003
S31500000B88012623F4803342F8273052F8273007F03D
S31500000B981F037F0906FA03F301EB8706BFF35F8F8E
S31500000BA8C6F8803141F82730DBF8043093F9017034
S31500000BB8002F1ED45B79CE191B0186F8003340F846
S31500000BC827B052F82730012623F4803342F827301D
S31500000BD852F8273007F01F037F0906FA03F301EBE3
S31500000BE88706BFF35F8FC6F8803141F82730DBF8F8
S31500000BF804301F7A93F904303F0101F54076F75423
S31500000C0840F823B052F8237027F4803742F823704F
S31500000C1852F8232003F01F0201275B0907FA02F2A4
S31500000C2801EB8307BFF35F8FC7F8802141F82320C4
S31500000C38DBF80410CA7991F903101201725440F8CE
S31500000C4821B045F24900C5F253200026CBF8000032
S31500000C58304603B0BDE8F08FDDF800C0CDF800C01F
S31500000C6800F060B810B50446002061682060486945
S31500000C7820B181680068096A88476168086920B1F7
S31500000C8881680068096A8847616891F902204EF20E
S31500000C988010002ACEF200000CD402F01F010123B6
S31500000CA803FA01F1520940F82210BFF34F8FBFF340
S31500000CB86F8F616891F90120002A0CD402F01F0198
S31500000CC8012303FA01F1520940F82210BFF34F8FAE
S31500000CD8BFF36F8F616891F90310012301F01F02BA
S31500000CE803FA02F2490940F82120BFF34F8FBFF3F8
S31500000CF86F8F616891F9041001F01F0203FA02F27E
S31500000D08490940F82120BFF34F8FBFF36F8FA068C2
S31500000D180022017801F0BF010170A168C87800209F
S31500000D28CA7010BD70B5044680680078400644BF96
S31500000D38082070BD0D4604980021C4E905116168B4
S31500000D48C4E90352E36184F820001E464B69002B70
S31500000D5846D01028A66108D348690223406800686F
S31500000D68016863F31D7101600AE04969072849684B
S31500000D7809680B6823F0405088BF40F0805008602F
S31500000D8860680223406940680068016863F393411C
S31500000D9801606068406940680068C68160684069AB
S31500000DA840680068826082B9606840694068006887
S31500000DB8016821F440210160606840F6E8614069F5
S31500000DC8C2F200014068006881606068416907C92D
S31500000DD852680968904700B170BD616894F82000B0
S31500000DE80A69002A57D01028666108D308690222C2
S31500000DF840680068016862F31D7101600AE00969CC
S31500000E080728496809680A6822F0405088BF40F0F8
S31500000E1880500860606802220069406800680168BE
S31500000E2862F39B6101606068417A49B9016A39B128
S31500000E38097B012904D1E16901291CBF013E6661CC
S31500000E48006940680068C681606800694068006893
S31500000E58456085B96068006940680068016821F0E6
S31500000E6840610160606840F6EC610069C2F2000109
S31500000E78406800684160A068017801F0DF010170F0
S31500000E886068016907C9526809689047002818BF51
S31500000E9870BD94F82000A1681028CA7A0B8A04D37A
S31500000EA802F09F0202F1200C05E007288CBF02F031
S31500000EB89F0C42F0400C66686FF00402451C0F2830
S31500000EC888BF02EB9500727A23F4706343EA002028
S31500000ED85AB9336A4BB11A7B012A06D1E269012A4B
S31500000EE80CBF20F0800040F0800081F80BC0A1689C
S31500000EF80882A068017841F060010170002070BD89
S31500000F08EFF303804FF0704101EB006046F20031C9
S31500000F188015C4F20001425822F4803242504158EA
S31500000F2840F63471C2F200010858D0E9061291421F
S31500000F381FD0026942B190F82030102B07D383687E
S31500000F485B6842F821300EE0826852680BE0D0F800
S31500000F5808C0072B03D89CF80430535403E0BCF8A8
S31500000F68043022F81130C26901319142816118BFFB
S31500000F7870474068012290F9030000F01F0102FA49
S31500000F8801F14EF200124009CEF2000242F820109A
S31500000F98704742684169537A43B9126A32B1127B83
S31500000FA8012A03D18268D278920629D5C269531ECE
S31500000FB8994205D18268138A23F080031382C26995
S31500000FC8914208BF7047C26842B190F82030102B92
S31500000FD808D352F8212083685A600FE082680023FC
S31500000FE853600BE0D0F808C0072B03D8525C8CF886
S31500000FF8042003E032F81120ACF8042001314161E5
S315000010087047EFF303804FF0704246F2003102EB6F
S315000010180060C4F200018015425822F48032425022
S31500001028425840F63472C2F2000210584268136AF7
S31500001038B3B35B78012B33D1C369D0F814C0013B35
S315000010489C451DD192F903204EF2001C51F822301E
S31500001058CEF2000C23F4803341F8223051F82210E6
S3150000106802F01F010123520903FA01F10CEB820376
S31500001078BFF35F8FC3F880114CF82210FFF789BFC2
S31500001088116969B192F90310012301F01F0203FAED
S3150000109802F24EF200134909CEF2000343F821206A
S315000010A8FFF777BF4FF0704246F20031EFF3038047
S315000010B802EB0062C4F200019015435823F4803312
S315000010C84350435840F63473C2F2000318588368F5
S315000010D8DB789B0704D543685B7A012B18BF7047FA
S315000010E880B512164EF2001CCEF2000C02F01F0359
S315000010F84FF0010E52090EFA03F30CEB8202C2F806
S315000011088030BFF34F8FBFF36F8F426892F902208A
S31500001118002A0CD402F01F0352090EFA03F30CEB53
S315000011288202C2F88030BFF34F8FBFF36F8F826899
S31500001138137803F0BF031370426892F90230002B4C
S3150000114815D451F8232022F4803241F8232051F88F
S31500001158231003F01F01012202FA01F15A090CEBD0
S315000011688203BFF35F8FC3F880114CF82210012168
S31500001178BDE8804000F000B82DE9F04184B004468F
S31500001188806A0DF1040828B1024692E8E000434659
S31500001198E0C300E040466268127801710260E16AC5
S315000011A88160616A8847A06A10B198E80E000EC08F
S315000011B804B0BDE8F081F0B581B04FF07041EFF3AF
S315000011C8038001EB006540F63471A815C2F20001F0
S315000011D80C58606890F902104EF200100029CEF201
S315000011E800000DD401F01F020123490903FA02F297
S315000011F800EB8101C1F88020BFF34F8FBFF36F8FDB
S31500001208A16846F200360A78C4F2000602F0BF0268
S315000012180A70616891F90210002915D456F8212040
S31500001228012322F4803246F8212056F8212001F0C5
S315000012381F02490903FA02F200EB8103BFF35F8F2D
S31500001248C3F8802140F82120A0680021C778C17022
S315000012583A0703D520460521FFF78EFFF80703D086
S3150000126820460421FFF788FFF84310F0140F4FEAD1
S31500001278256503D120460821FFF77EFF56F825008D
S3150000128820F4803046F8250056F8250001B0F0BD58
S3150000129880B545F25422C5F24F020260084600F0B6
S315000012A803F8002080BDD4D470B5044600F05CF87D
S315000012B840F6307CEFF31080012181F31088C2F2EA
S315000012C8000CDCF8001039B940F60351C4F20801E5
S315000012D800220A7040220A70DCF800100131CCF8AE
S315000012E8001080F31088208810B340F6000E002105
S315000012F8C4F2080E606800EBC102928850F83130DB
S31500001308100ADD03D2B20BD50EEB801555F8226014
S3150000131826F4803645F8226023F4803645F82260A4
S315000013280EEB801040F82230208801318142E1D34B
S31500001338EFF31081012080F31088DCF8000020B15B
S31500001348DCF800000138CCF80000DCF8000038B9F9
S3150000135840F60350C4F20800002202708022027090
S3150000136881F3108870BDD4D42DE9F0410446008875
S31500001378B0B344F2103843F240070025C0F2000823
S31500001388C4F20807002600BF606838F8162000EB8C
S31500001398C500818891421CD1006800F0B85117F940
S315000013A81600B1F1807F07D1002812D417F816006D
S315000013B860F07F0007E000BFB0F1FF3F09DC17F8D7
S315000013C8160000F07F0007F81600C820012100F07B
S315000013D826FC0136032ED7D1208801358542D1D384
S315000013E8BDE8F081F0B591F902300246037146F284
S315000013F80030C4F200004FF0000E50F823C040F849
S3150000140823E08B684FF600579360CB68CFF6FF77DB
S31500001418D3600B785371034303F807E04D790E79CF
S31500001428CC78ED0145EA06162643DE5592F90430D6
S3150000143840F823C092F9040000280CD449784EF2EB
S3150000144800430901CEF20003C15440F63471C2F2DA
S31500001458000141F8202044F25531C0F2490100202C
S315000014681160F0BD90F9040046F20031C4F20001A3
S3150000147851F8202022F4803241F8202051F820101B
S3150000148800F01F01012202FA01F14EF20012400992
S31500001498CEF2000202EB8003BFF35F8FC3F8801120
S315000014A842F820100020704770B582B04FF07041A6
S315000014B8EFF3038001EB006140F634728815C2F23F
S315000014C80002105846F200344279C4F200044FF67E
S315000014D800532243CFF6FF73D25C0D1602F00306C3
S315000014E8032E07D054F8251021F4803144F825102E
S315000014F854F82510816829B14279C068CDE90002FF
S3150000150868468847032E07D154F8250020F4803012
S3150000151844F8250054F8250002B070BD2DE9F041C5
S315000015280246087C012404FA00F0D0605160147465
S31500001538087C49F20003C4F2160303EB002090600E
S3150000154848690027506188699761D061D1F81C8085
S31500001558EFF3108084F3108844F210050C7CC4F273
S3150000156808054FF0004C2E682CFA04F4A6432E60AA
S315000015782E6880F3108890684FF4254606609068B8
S31500001588C7629068C763906887640E78087A032EE6
S3150000159896684FEAC0504D6808BF00F58030F06283
S315000015A89068C0F810C09068C0F814C09068C0F879
S315000015B818C09068476290688762D8F818009668DD
S315000015C8F061D8F81C009668306290686E1E8666D0
S315000015D8906846665068D8F850C0C06900F1300473
S315000015E890F84860FE40F6070DD03B4654F8276051
S315000015F89568042F08BF0323032F08BF0423013E61
S3150000160805EB8303DE640137062FE9D1087C05283C
S3150000161802D8906800234364906800238363906827
S31500001628C0F88830D8F8500040B998F8200098F8E3
S315000016382130400340EA43704CEA000C98F8480011
S31500001648936800284FF4A00008BF4FF4AA00186456
S3150000165890680323C0F834C090684EF2001C0363F8
S31500001668936801201863D2E9023740F6347EDF60BA
S3150000167891F9124046F20033CEF2000CC4F2000390
S31500001688002CC2F2000E1BD4497C0CEB04050901A0
S3150000169885F800134EF8242053F8241021F48031DD
S315000016A843F8241053F8241004F01F0188406109F8
S315000016B80CEB8104BFF35F8FC4F880014CF821005E
S315000016C898F9280000281ED498F822100CEB00047C
S315000016D8090184F800134EF8202053F8201001243D
S315000016E821F4803143F8201053F8201000F01F0130
S315000016F8400904FA01F10CEB8004BFF35F8FC4F8CC
S3150000170880114CF8201098F9290000281ED498F862
S3150000171823100CEB0004090184F800134EF820206E
S3150000172853F82010012421F4803143F8201053F88F
S31500001738201000F01F01400904FA01F10CEB8004A7
S31500001748BFF35F8FC4F880114CF8201098F92A006F
S3150000175800281ED498F824100CEB0004090184F81C
S3150000176800134EF8202053F82010012421F480316C
S3150000177843F8201053F8201000F01F01400904FA1E
S3150000178801F10CEB8004BFF35F8FC4F880114CF8AD
S31500001798201098F92B0000281ED498F825100CEB79
S315000017A80004090184F800134EF8202053F820108D
S315000017B8012421F4803143F8201053F8201000F05A
S315000017C81F01400904FA01F10CEB8004BFF35F8F97
S315000017D8C4F880114CF8201098F92C0000281ED463
S315000017E898F826100CEB0004090184F800134EF84B
S315000017F8202053F82010012421F4803143F82010CA
S3150000180853F8201000F01F01400904FA01F10CEB0F
S315000018188004BFF35F8FC4F880114CF8201098F944
S315000018282D0000281ED498F827100CEB0004090197
S3150000183884F800134EF8202053F8201021F4803144
S3150000184843F8201053F8201000F01F010123400927
S3150000185803FA01F10CEB8003BFF35F8FC3F8801125
S315000018684CF8201045F25401C0F2470100201160DF
S31500001878BDE8F081D0E9021200204A607047D0E93D
S31500001888021200208A607047826801399166826870
S31500001898D36ADB0703D15166D0E90201C160002093
S315000018A87047F0B583B0EFF303814FF0704246F20C
S315000018B8003002EB0161C4F200008A15135823F4C4
S315000018C880331350135840F63473C2F200039F58FE
S315000018D87A681378012B40F0AE80D7E90235D269D1
S315000018E89D60BB6800259D64BB680916DD64BB68FE
S315000018F84EF2802C1D6550F82130012523F48033E3
S3150000190840F8213050F8213001F01F03CEF2000CC8
S3150000191805FA03F34909BFF35F8F4CF8213092F8B3
S315000019284830D90717D092F92850002D13D450F80B
S315000019382510012321F4803140F8251050F8251090
S3150000194805F01F0103FA01F16B09BFF35F8F4CF82D
S31500001958231092F84830990715D592F92930002BAB
S3150000196811D450F82310012521F4803140F82310B2
S3150000197850F8231003F01F0105FA01F15B09BFF3C4
S315000019885F8F4CF8231092F92A30002B11D450F8A7
S315000019982310012521F4803140F8231050F8231034
S315000019A803F01F0105FA01F15B09BFF35F8F4CF8DD
S315000019B8231092F92B30002B11D450F8231001254F
S315000019C821F4803140F8231050F8231003F01F014A
S315000019D805FA01F15B09BFF35F8F4CF8231092F902
S315000019E82C30002B11D450F82310012521F4803116
S315000019F840F8231050F8231003F01F0105FA01F1EF
S31500001A085B09BFF35F8F4CF8231092F92D20002A4B
S31500001A1811D450F8221021F4803140F8221050F8E1
S31500001A28220002F01F00012101FA00F05109BFF35C
S31500001A385F8F4CF821007869A8B1B8696D4628B15E
S31500001A48024692E85800294658C100E02846002177
S31500001A5801718160F969016079698847B86910B1CF
S31500001A6895E80E000EC003B0F0BD4EF22000C4F299
S31500001A780100817940F200420068C2F2000252F881
S31500001A882110C0F3026021FA00F040F65871C2F244
S31500001A98000108607047D4D42DE9F0414EF2804425
S31500001AA8C4F201044CF200154AF20350C4F20105CF
S31500001AB824F8820C0120A880A8880028FCD147F2C7
S31500001AC800010120C4F2000128808860086040F205
S31500001AD8004742F600504CF2002C4EF22006C2F2A5
S31500001AE80007C0F2311041F200214FF40042C0F65F
S31500001AF8EB3CC4F20106C0F27A01002387E80F0026
S31500001B08C7E9042CB079316857F82000C1F302619F
S31500001B1840F65878C840C2F20008C8F80000207895
S31500001B2810B9607880073CD0207840B90120207031
S31500001B38C820012100F073F820780128FCD1002084
S31500001B48607020700020B075307FC007FCD041F26D
S31500001B58103030810020B072307F8006FCD503201B
S31500001B68287741F22120C2F2000030600520B071CA
S31500001B78B079316857F82000C1F30261C840C8F847
S31500001B88000042F20800C4F20000F12101710121AF
S31500001B980170F02101714FF4254024F8820CBDE84C
S31500001BA8F0814FF47A7000F001F8CBE77047D4D48F
S31500001BB8B0B543F22404C4F208040025C820012164
S31500001BC8257100F02CF8257020780028FCD12078A3
S31500001BD840F00200207000BF20788007FCD4002067
S31500001BE804F8020C14F8020C0028FBD1002001218D
S31500001BF804F11C0212F8103003F07F0302F81030CB
S31500001C0812F91030002BFBD4C9074FF001004FF032
S31500001C18000108BFB0BDEDE700BE00BFFEE740F615
S31500001C285872C2F20002126841F20023C0F27A0327
S31500001C389A4201FB00F00FD340F6FF01C0F23D01C6
S31500001C4811444DF68362C4F21B32A1FB0212110D38
S31500001C58A0FB0101E9B11FE04CF6002348F6381154
S31500001C68C3F69A33C0F24101B3FBF2F2884207D2B7
S31500001C784FF47A7100FB01F0B0FBF2F0800808E03F
S31500001C889200B0FBF2F0884206D24FF47A7100FB5C
S31500001C9801F028B100F005B84FF0FF3000F001B8A8
S31500001CA8704701380028FCD17047D4D42DE9F0419B
S31500001CB846F22018C4F20008B8F80000B8F8201058
S31500001CC840F6F06501EA0006B7B20024C2F2000544
S31500001CD827FA04F0C00704D055F8241009B12046A5
S31500001CE888470134102CF3D1A8F81060BDE8F081BC
S31500001CF870B584B048F248060320C4F2000600F026
S31500001D0864F86FF0FF0044F2043430604FF0FF309F
S31500001D180021C0F200040122CDE9020034F8113096
S31500001D2802FA01F5002B01F1010118BFA8430629A3
S31500001D38F4D14EF280320190002001A9CEF20002C1
S31500001D4851F8203006EB8005AB6242F820300130AE
S31500001D580328F5D1032000F00FF846F200310020E1
S31500001D68C4F2000134F810200AB141F820200130ED
S31500001D780628F7D104B070BD0122EFF3108182F373
S31500001D88108840F64C72C2F2000232F8103023B1C5
S31500001D9832F81030013B22F8103032F810208AB998
S31500001DA84EF2FE3CC4F2010C44F29C32BCF8003000
S31500001DB8C0F2000232F8100043F4254222EA00007D
S31500001DC8ACF8000081F31088704780B50122EFF364
S31500001DD8108182F3108840F64C72C2F2000232F883
S31500001DE810308BB94EF2FE3C44F29C33C4F2010C1F
S31500001DF8C0F20003BCF800E033F8103043EA0E03E3
S31500001E0843F42543ACF8003032F81030013322F899
S31500001E18103081F3108880BD00F006F8FEF78FFBBE
S31500001E28FEE700BE7047D4D4B0B54EF60850CEF2E1
S31500001E3800004FF47001C0F8801040F20001C0F2B3
S31500001E480001016000200024FEF710F9FFF724FEC8
S31500001E580120FEF70BF940F20000C2F2000080F301
S31500001E680A88002000F050F8FFF7FFFDFFF7A0FEF4
S31500001E780320FFF7AAFF40F61050C4F208004FF6F9
S31500001E88FF7100BF20F814100134092CFAD1032081
S31500001E98FFF772FF0320FFF798FF0420C4F20E0035
S31500001EA80021016041608160C1600320FFF764FF83
S31500001EB80220FEF7DBF8012000F026F841F2B01404
S31500001EC8C2F20004204601F0E1FC204601F0F2FCD3
S31500001ED844F2FA3044F2FA31C0F20000C0F20001CE
S31500001EE8081A8410012C08DB44F2FA35C0F2000502
S31500001EF855F8040B8047013CFAD1FFF7F9FE00209C
S31500001F08BDE8B04000F02DB8F0B581B044F22035F8
S31500001F18C0F200052E68044676B16868071D00BF42
S31500001F287879844204D157E90101091A01F099FC2C
S31500001F38013E07F10C07F3D1AE6886B1E86800F1F7
S31500001F48080500BF6879844205D155E90202296867
S31500001F58121A01F08AFC013E05F11005F2D101B012
S31500001F68F0BD70474FF0FF31024642F8081F0021C6
S31500001F78C0E90322C0E900127047002101617047D9
S31500001F8880B5D1F800C01CF1010207D000F10802A3
S31500001F989646526813686345FAD903E0D0F810E00C
S31500001FA8DEF804204A609160C1F808E0CEF8041013
S31500001FB8086101680131016080BDD0E9012301692A
S31500001FC8936042685A604A68824201D182684A60D0
S31500001FD800220261086801380860704770B5002859
S31500001FE84BD00446C06BC0B30E46216CA0FB010162
S31500001FF899BBFEF7ECFB2068D4E90F12002502FB1B
S315000020080103013901FB0201A563C4E90103FF20AD
S31500002018E16084F8440084F8450004F110004EB1EC
S31500002028FFF7A0FF04F12400FFF79CFFFEF7FAFB79
S31500002038012070BD01680029F8D001F02DF80028AC
S31500002048F4D04EF60450CEF200004FF080510160F5
S31500002058BFF34F8FBFF36F8FE8E743F6866044F20E
S315000020685C0243F69C73C0F20000C0F20002C0F2A4
S3150000207800034FF4B671FFF7CFFD43F6866044F2CE
S315000020885C0243F69473C0F20000C0F20002C0F28C
S31500002098000340F23711FFF7BFFD10B582B043B316
S315000020A8B8B11C4601B9A2B901B192B1482301934E
S315000020B8019B482B2DD1019B002908BF2246C4E964
S315000020C80F01204601212260FFF788FF204602B053
S315000020D810BD43F6866043F6BC5243F6FC63C0F275
S315000020E80000C0F20002C0F200034FF4D871FFF7F7
S315000020F893FD43F6866043F6BC5243F60F43C0F29F
S315000021080000C0F20002C0F200034FF4C271FFF7EC
S3150000211883FD43F6866043F6BC5243F68D53C0F200
S315000021280000C0F20002C0F200034FF4CB71FFF7C3
S3150000213873FDB0B582B060B10D46814209D8144628
S31500002148002100222346FFF7A8FF2046A56302B018
S31500002158B0BD43F6866043F6336243F61D43C0F2CC
S315000021680000C0F20002C0F200034FF45E71FFF7F0
S3150000217853FDD4D42DE9F04F85B00028049200F021
S315000021889D8099461546044619B9206C002840F0EA
S31500002198C580B9F1020F03D1E06B012840F0AE808B
S315000021A8019101F069F810B9002D40F09780FEF70B
S315000021B80EFBA06BB9F1020F59D0E16B884256D3DA
S315000021C804F11007012002AE4FF0000B04AD00BF6A
S315000021D80499002966D0C00702D0304600F0E2FF15
S315000021E8FEF720FB00F02FFCFEF7F1FA94F8440006
S315000021F8FF2808BF84F844B094F84500FF2808BFB4
S3150000220884F845B0FEF70EFB3046294600F0D7FFA6
S3150000221800284AD1FEF7DBFAD4F838A0D4F83C8077
S31500002228FEF700FBC24515D10499384600F0D6FEE4
S31500002238204600F0B5F800F061FC80B94EF604506F
S31500002248CEF200004FF080510160BFF34F8FBFF30D
S315000022586F8F04E0204600F0A3F800F04FFCFEF76D
S31500002268B6FAA06BE16B88424FF00000B0D2019934
S3150000227820464A4600F062F854F8240F70B120460A
S3150000228800F00AFF50B14EF60450CEF200004FF0AF
S3150000229880510160BFF34F8FBFF36F8FFEF7C2FA0D
S315000022A8012008E0FEF7BEFA04E0204600F078F8C0
S315000022B800F024FC002005B0BDE8F08F43F68660E8
S315000022C843F6573243F69473C0F20000C0F2000298
S315000022D8C0F2000340F2B631FFF79EFC43F6866073
S315000022E843F6573243F66933C0F20000C0F20002E3
S315000022F8C0F2000340F2BB31FFF78EFC43F686605E
S3150000230843F6573243F62543C0F20000C0F20002F6
S31500002318C0F200034FF46E71FFF77EFC43F6866049
S3150000232843F6573244F20413C0F20000C0F200022A
S31500002338C0F2000340F2B731FFF76EFC70B5866B4A
S31500002348036C044643B31546CAB1E0681A4601F061
S315000023588CFAE168206C2268091A9142E16003D27E
S31500002368A16840420844E060A81EB0FA80F040091F
S315000023783146002E18BF01210840361A0CE0606865
S315000023881A4601F072FAD4E90101226C1044884217
S31500002398606001D320686060701CA06370BDD4D4EF
S315000023A8F0B581B00446FEF712FA94F94560012E9D
S315000023B80EDB04F1240500BF286848B1284600F062
S315000023C86BFE08B100F04BFF70B2013E0128F3DC4A
S315000023D8FF2684F84560FEF725FAFEF7F8F994F922
S315000023E84470012F0EDB04F1100500BF286848B1C0
S315000023F8284600F051FE08B100F031FF78B2013FDF
S315000024080128F3DC84F8446001B0BDE8F040FEF72B
S3150000241809BAD4D42DE9F04F83B00028029200F00F
S31500002428A28016468946044619B9206C002840F051
S31500002438BA8000F021FF10B9002E40F0A480FEF704
S31500002448C6F9D4F838A0BAF1000F28D0226C52B1D8
S31500002458D4E902011144E160814224BF2168E160A8
S31500002468484601F002FA54F8100FAAF10101A162D8
S3150000247870B1204600F010FE50B14EF60450CEF270
S3150000248800004FF080510160BFF34F8FBFF36F8F8D
S315000024980124FEF7C7F9204603B0BDE8F08F04F122
S315000024A8240801206F464FF0000B02AE029900295E
S315000024B855D0C00702D0384600F074FEFEF7B2F9D0
S315000024C800F0C1FAFEF783F994F84400FF2808BF24
S315000024D884F844B094F84500FF2808BF84F845B04E
S315000024E8FEF7A0F93846314600F069FE60B120468D
S315000024F8FFF756FF00F002FBFEF769F9A56BFEF73A
S3150000250891F975B322E000BFFEF761F9A56BFEF7F6
S3150000251889F92DB12046FFF743FF00F0EFFA15E0E1
S315000025280299404600F05AFD2046FFF739FF00F0B1
S31500002538E5FA58B94EF60450CEF200004FF0805135
S315000025480160BFF34F8FBFF36F8F00BFFEF73FF9F0
S31500002558D4F838A00020BAF1000FA7D076E70024F7
S3150000256897E7002497E743F6866043F6576243F6F3
S31500002578F433C0F20000C0F20002C0F2000340F2D9
S31500002588E951FFF749FB43F6866043F6576243F67F
S315000025986933C0F20000C0F20002C0F2000340F244
S315000025A8F251FFF739FB43F6866043F6576243F666
S315000025B80773C0F20000C0F20002C0F2000340F246
S315000025C8ED51FFF729FBD4D42DE9F04F83B000284D
S315000025D8029100F08E800446006C002840F0998035
S315000025E80D4600F049FE10B9002D40F0A280FEF716
S315000025F8EEF8A16BD1B154F8100F0139A16270B190
S31500002608204600F049FD50B14EF60450CEF20000C7
S315000026184FF080510160BFF34F8FBFF36F8F0124D6
S31500002628FEF700F9204603B0BDE8F08F4EF60459D0
S3150000263804F1240801206E464FF0000B02AFCEF2DB
S3150000264800094FF0805A00BF029900294DD0C007F3
S3150000265802D0304600F0A6FDFEF7E4F800F0F3F9E4
S31500002668FEF7B5F894F84400FF2808BF84F844B08C
S3150000267894F84500FF2808BF84F845B0FEF7D2F85D
S315000026883046394600F09BFD60B12046FFF788FECC
S3150000269800F034FAFEF79BF8A56BFEF7C3F835B3DE
S315000026A81CE000BFFEF793F8A56BFEF7BBF82DB14B
S315000026B82046FFF775FE00F021FA0FE00299404622
S315000026C800F08CFC2046FFF76BFE00F017FA28B9DD
S315000026D8C9F800A0BFF34F8FBFF36F8FFEF777F8E7
S315000026E8A16B00200029AFD085E7002498E70024D5
S315000026F898E743F6866043F6A85243F6F433C0F2E9
S315000027080000C0F20002C0F2000340F28261FFF747
S3150000271883FA43F6866043F6A85244F28903C0F268
S315000027280000C0F20002C0F2000340F28661FFF723
S3150000273873FA43F6866043F6A85243F66933C0F245
S315000027480000C0F20002C0F2000340F28B61FFF7FE
S3150000275863FAD4D4B0B500B3D1B140F65C7E4FF07D
S31500002768000CC2F2000E0022002300BF0EEB02048A
S315000027786568A8420DD023B92368002B18BF6446A4
S3150000278823460832502AF1D1002B18BFC3E900109E
S31500002798B0BD2346C3E90010B0BD43F6866043F6D4
S315000027A8222243F6D673C0F20000C0F20002C0F23D
S315000027B8000340F6C931FFF72FFA70B515460E46E5
S315000027C80446FEF704F894F84400FF2804BF0020E6
S315000027D884F8440094F84500FF2804BF002084F8D4
S315000027E84500FEF71FF8A06B28B904F1240031460E
S315000027F82A4600F014FC2046BDE87040FFF7D0BD1D
S315000028082DE9F04F81B00B9D002D00F0DC800C9C6B
S31500002818002C00F0E880814660200090009860282F
S3150000282840F0F18000980E460A9F2046602198469F
S31500002838924601F016F8256366B104F134000021CA
S31500002848725C42541AB10F2901F10101F8D1002036
S3150000285884F84300052F80F0E68005EB8A000438EB
S31500002868251D20F007062846E762FFF786FB04F1D8
S315000028781800FFF782FBC7F10500216BA0613046FF
S315000028884A46434624616462FDF748FF2060FDF727
S315000028989EFF40F6D070C2F20000016840F6AC7B9D
S315000028A801310160C2F2000BDBF8001040F6B47A81
S315000028B840F6DC77C2F2000AC2F2000761B1DAF824
S315000028C80000002840D1DBF80000E16AC06A8842AF
S315000028D898BFCBF8004037E0CBF8004000680128E5
S315000028E832D10026B819FFF73DFB1436642EF9D10C
S315000028F841F28808C2F200084046FFF733FB41F26E
S315000029089C09C2F200094846FFF72CFB41F25C001D
S31500002918C2F20000FFF726FB40F6B870C2F20000CC
S31500002928FFF720FB41F24400C2F20000FFF71AFB52
S3150000293841F27C00C2F20000C0F8008041F280003B
S31500002948C2F20000C0F8009040F6B070C2F2000073
S3150000295801680131016041F24001C2F20001E06AFA
S315000029680A68904288BF086000EB800007EB800089
S315000029784068A0608168E1604D608560E06A00EBB0
S31500002988800007EB8001616157F82010013147F894
S315000029982010FDF747FFDAF8000080B1DBF80000E9
S315000029A8E16AC06A88420AD24EF60450CEF20000A6
S315000029B84FF080510160BFF34F8FBFF36F8F2046F2
S315000029C801B0BDE8F08F43F6C56043F6B16243F641
S315000029D8F823C0F20000C0F20002C0F2000340F281
S315000029E8F141FFF719F943F6C56043F6B16243F6BC
S315000029F80153C0F20000C0F20002C0F2000340F228
S31500002A08F241FFF709F943F6C56043F6B16244F2AD
S31500002A187213C0F20000C0F20002C0F2000340F2D6
S31500002A28FA41FFF7F9F843F6C56043F61C5243F638
S31500002A389243C0F20000C0F20002C0F2000340F266
S31500002A486471FFF7E9F840F6D470C2F20000016835
S31500002A580131016070472DE9F04381B00E4640F61A
S31500002A68D871C2F200010D6841F27C01C2F2000180
S31500002A78D1F8008041F2800140F6AC74C2F2000140
S31500002A88C2F20004D1F8009021680746081DFFF736
S31500002A9894FA781C16D1AEB141F24400C2F2000095
S31500002AA8D0E90012236801319A6093682768FB60B1
S31500002AB8276804375F6023680433936022680160DF
S31500002AC8506117E02068ED194560206800F104019F
S31500002AD805D3484601B0BDE8F043FFF751BA404672
S31500002AE8FFF74EFA41F27000C2F2000001688D420B
S31500002AF838BF056001B0BDE8F083D4D42DE9F047AE
S31500002B08FDF765FE40F6D470C2F2000001680029A0
S31500002B1800F0AC80016801390160006828B1002422
S31500002B28FDF780FE2046BDE8F08740F6D070C2F279
S31500002B38000000680028F2D041F25C00C2F20000F2
S31500002B48016841F2580A40F6AC790029C2F2000A37
S31500002B58C2F2000964D041F2400240F6DC7300215B
S31500002B68C2F20002C2F200034FF0010CC768FC680B
S31500002B78D4E90775A66ABD60E7696F60776804F1EE
S31500002B881805AF4201D1276A7760A1623768013F0D
S31500002B983760D4E902656769B560A6686E607D68C6
S31500002BA8261DB54201D1E5687D6061613D68013D3C
S31500002BB83D60E76A1568AF4288BF176007EB87076D
S31500002BC803EB87077F68A760BD68E5606E60BE6037
S31500002BD8E76A07EB870703EB8706666153F8276002
S31500002BE8013643F82760E76AD9F80060F66AB74203
S31500002BF888BFCAF800C00768002FB7D141F27C0029
S31500002C08C2F200000168096819B10068C068006866
S31500002C1801E04FF0FF3041F27001C2F20001086096
S31500002C2841F27808C2F20008D8F8006056B10124CB
S31500002C3800F0F8F808B1CAF80040013EF8D10020C3
S31500002C48C8F80000DAF8000000283FF468AFD9F8A1
S31500002C5800004EF60450CEF200004FF0805101609D
S31500002C68BFF34F8F0124BFF36F8F59E743F6C56053
S31500002C7843F6A34243F6F173C0F20000C0F2000225
S31500002C88C0F2000340F68B71FEF7C6FF80B540F62A
S31500002C98D470C2F20000006830B141F25800C2F2A6
S31500002CA800000121016080BD41F25800C2F2000017
S31500002CB8002141F2400C0160C2F2000CDCF8001061
S31500002CC840F6DC7301EB8102C2F2000353F82200DE
S31500002CD803EB820230B900BFB9B152F8140D0139BD
S31500002CE80028F9D05068436802F10800834253600F
S31500002CF801D1D3685360D86840F6AC72C2F20002BC
S31500002D081060CCF80010106880BD43F6C56043F625
S31500002D18E52244F2F603C0F20000C0F20002C0F257
S31500002D28000341F2FA31FEF777FFB0B58AB044F2F4
S31500002D384940C4F24C500024069005A804A903AAE9
S31500002D488DF81C40CDE90444FDF722FCDDE903209B
S31500002D58059DCDE9004043F2BD40C0F2000006A93A
S31500002D6800230295FFF74CFD41F27400C2F2000001
S31500002D78056065B300F0B5FB012811D0013026D1F6
S31500002D8843F6C56043F6DD7243F61263C0F20000EF
S31500002D98C0F20002C0F2000340F6A961FEF73CFF4C
S31500002DA841F27001C2F200014FF0FF32012080F3B8
S31500002DB810880A6040F6B471C2F20001086040F655
S31500002DC8D870C2F2000000210160FDF7BFFC44F292
S31500002DD8A830C0F2000000680AB0B0BD70B540F671
S31500002DE8CC74C2F200042068D0B140F6B87540F63B
S31500002DF8D076C2F20005C2F2000600BFFDF7E7FC76
S31500002E08E868C0680430FFF7D8F8306801383060E1
S31500002E18206801382060FDF705FD20680028EDD1FF
S31500002E2870BDD4D42DE9F04740F6D470C2F2000044
S31500002E38006848B141F27800C2F200000168013129
S31500002E4801600020BDE8F08740F6D870C2F20000A5
S31500002E58016841F2700C4A1CC2F2000C026022D3CF
S31500002E6841F27C00C2F2000001680968002940F0BE
S31500002E789F8041F28003C2F2000301681F68076061
S31500002E88196041F28401C2F200010B6801330B603C
S31500002E980168096819B10068C068006801E04FF068
S31500002EA8FF30CCF80000DCF80000824201D2002096
S31500002EB874E041F27C0AC2F2000ADAF800004FF028
S31500002EC800090068002864D041F2400E40F6DC7420
S31500002ED840F6AC78C2F2000EC2F20004C2F2000854
S31500002EE8002000BFDAF80050ED68EE68374657F85C
S31500002EF8045FAA4250D3D6E9021375698B60B1689C
S31500002F0859606968B94201D1F1686960C6F81490D8
S31500002F18296801392960B56A85B1D6E907138B6036
S31500002F28F1695960696806F11803994201D1316A55
S31500002F386960C6F82890296801392960F56ADEF8BB
S31500002F4800108D4205EB850188BFCEF8005004EBD2
S31500002F5881014968B1608B68F3605F608F60F16AD0
S31500002F6801EB810104EB8103736154F821300133CD
S31500002F7844F82130F16AD8F80030DB6ADAF80050F4
S31500002F88994288BF012029680029ABD14FF0FF3547
S31500002F9802E04FF0FF350020CCF8005041F258010E
S31500002FA8C2F200010968002918BF0120BDE8F087B0
S31500002FB843F6C56043F6656243F66F23C0F2000028
S31500002FC8C0F20002C0F2000341F25F21FEF724FEC0
S31500002FD840F6D870C2F200000068704710B570B1AC
S31500002FE80C4640F6AC71C2F2000109681831FEF7CA
S31500002FF8C7FF20460121BDE81040FFF72CBD43F668
S31500003008C56043F6C07243F6E853C0F20000C0F24A
S315000030180002C0F200034FF4A451FEF7FDFD10B5FF
S3150000302850B340F6AC7CC2F2000C0346D0F804E07C
S31500003038DCF80000002AC0F81CE0DEF80800DCF81E
S3150000304800402062DCF8004004F118044460DCF813
S31500003058000000F11800CEF80800DCF800008362D2
S31500003068186818BF4FF0FF31441C084611461C600B
S31500003078BDE81040FFF7EFBC43F6C56043F6B24221
S3150000308843F6E853C0F20000C0F20002C0F20003A3
S3150000309841F2BE41FEF7C0FD80B5C068C068002891
S315000030A870D0D0E90713826A8B60C169596053688A
S315000030B800F118018B4201D1036A53600023836231
S315000030C81368013B136040F6D472C2F2000212681C
S315000030D88AB141F25C0CC2F2000CDCE900E2C26182
S315000030E893680362596091600EF10101C0F828C027
S315000030F8CCF8001034E0D0E9021342698B6081688D
S3150000310859605368011D8B4201D1C368536000237F
S315000031184361136841F2400C013B1360C2F2000C94
S31500003128C26ADCF800309A4288BFCCF8002040F624
S31500003138DC7C02EB8202C2F2000C0CEB82025268C3
S3150000314882609368C36059609160C16A01EB81012E
S315000031580CEB810242615CF8212001324CF82120F7
S3150000316840F6AC71C2F20001C06A0968C96A8842B1
S3150000317891BF002041F25801C2F20001012088BF28
S31500003188086080BD43F6C56043F6D24243F6004365
S31500003198C0F20000C0F20002C0F2000341F2F5419D
S315000031A8FEF73AFD41F28401C2F2000109680160A6
S315000031B840F6D871C2F2000109684160704770B5DF
S315000031C868B30D46D9B30446FDF701FB40F6D87E31
S315000031D8C2F2000EDEF8003029684A1C16D041F209
S315000031E8840CC2F2000CD4E90002DCF800608642C6
S315000031F801D093420CD29A1A914209D9881A2860AA
S31500003208DCF800002060DEF800006060002402E0C0
S31500003218002001242860FDF705FB204670BD43F613
S31500003228C56043F6607243F67243C0F20000C0F20E
S315000032380002C0F2000341F2A551FEF7EDFC43F689
S31500003248C56043F6607243F63153C0F20000C0F21F
S315000032580002C0F2000341F2A651FEF7DDFC41F27E
S315000032685800C2F2000001210160704740F6AC70B8
S31500003278C2F200000068704740F6B470C2F200005F
S31500003288006850B140F6D470C2F200000068002809
S315000032984FF0000008BF022070470120704770B544
S315000032A8002844D140F6D470C2F200000C460168EA
S315000032B8154601310160FDF78AFA40F6AC76C2F28E
S315000032C800063068806DB0B1FDF7ACFAFFF716FC62
S315000032D8FDF77DFA3068856D2DB131680020002C28
S315000032E808BF681E88653068002180F85C10FDF705
S315000032F899FA284670BD3068012180F85C10FDF700
S3150000330891FA002DE2D028460121FFF7A4FBFFF72A
S31500003318F5FB0028DCD14EF60450CEF200004FF043
S3150000332880510160BFF34F8FBFF36F8FD0E743F62D
S31500003338C56044F25A1243F67C43C0F20000C0F25C
S315000033480002C0F2000341F6C751FEF765FCF0B56E
S3150000335881B0002800F07D80002940F08A80174659
S315000033680546FDF7C5FAEFF31180102181F31188A0
S31500003378022295F85C1085F85C20AA6D012902F1F5
S315000033880102AA6561D1A96A002940F0828040F647
S31500003398D471C2F20001096881B141F25C01C2F23E
S315000033A80001D1E9002305F11806EB619C6801329A
S315000033B82C6266609E60A9620A6034E0D5E9021351
S315000033C86A698B60A96859605368291D8B4201D1C7
S315000033D8EB68536000236B61136841F2400C013BB4
S315000033E81360C2F2000CEA6ADCF800309A4240F632
S315000033F8DC7388BFCCF8002002EB8202C2F200031D
S3150000340803EB82025268AA609468EC60616091607E
S31500003418E96A01EB810103EB81026A6153F8212015
S31500003428013243F8212040F6AC72C2F20002E96A82
S315000034381268D26A914208D90FB10121396041F266
S315000034485801C2F2000101220A6080F3118801B016
S31500003458F0BD43F6C56043F6F45243F67863C0F20E
S315000034680000C0F20002C0F200034FF4FE51FEF75E
S31500003478D3FB43F6C56043F6F45243F6EB43C0F27A
S315000034880000C0F20002C0F2000341F6C171FEF767
S31500003498C3FB43F6C56043F6F45244F2A203C0F2F6
S315000034A80000C0F20002C0F2000341F6EA71FEF71E
S315000034B8B3FBD4D440F6DC744EF60455C2F20004CD
S315000034C8CEF200054FF08056FFF788FC20680228E8
S315000034D822BF2E60BFF34F8FBFF36F8FFDF7FCF946
S315000034E8F2E780B586B000F03BF841F2B000C2F2D0
S315000034F80000006820B30020CDE9040005A804A94F
S3150000350803AAFDF752F8DDE903200321DDF814C00C
S31500003518CDE9001043F2E55044F26F01C0F2000015
S31500003528C0F200010023CDF808C0FFF769F941F29F
S31500003538B401C2F20001086010B1012006B080BDD6
S3150000354843F6153044F2E00243F63F53C0F200005A
S31500003558C0F20002C0F200034FF4A371FEF75CFB51
S3150000356870B582B0FDF733F941F2B006C2F2000633
S31500003578306868BB41F2C404C2F200042046FEF774
S31500003588F1FC41F2D805C2F200052846FEF7EAFC2E
S3150000359841F2B800C2F20000046041F2BC00C2F277
S315000035A8000041F2341241F2EC0305600025C2F234
S315000035B80002C2F200030A200C210095FEF76DFDF9
S315000035C8306028B143F65231C0F20001FFF7C2F865
S315000035D802B0BDE87040FDF725B9D4D484B041F2F5
S315000035E8B80841F2B005C2F2000801ACC2F2000503
S315000035F84FF0000BEA4600BFD8F80000D0F800905C
S31500003608B9F1000F02D0C068066800E00026FFF78F
S315000036181AFA204600F0A2F8019919B1FFF76EFAD6
S315000036282EE000BF0746B9F1000F08D0BE4206D803
S31500003638FFF764FA3046394600F0BBF820E0B9F1E6
S31500003648000F01D0002208E041F2BC00C2F20000DF
S3150000365800680068B0FA80F042092868F11BFFF795
S31500003668ACF8FFF74BFA58B94EF60450CEF2000004
S315000036784FF080510160BFF34F8FBFF36F8F00BFCC
S315000036882868CDE902BBCDF804B000BF2146002268
S31500003698FEF7C0FE0028AFD0019800284CD4039E40
S315000036A8706910B1301DFEF788FC504600F056F8D8
S315000036B80199013908293FD80746DFE801F00505D1
S315000036C81C231C05051C230096F82400029BB169DF
S315000036D840F0010086F82400194430463A4600F0C6
S315000036E8A0F848B396F8240041071BD400F0FA0066
S315000036F886F824001DE096F8240000F0FE0086F8FF
S31500003708240019E096F8240040F00101029886F892
S315000037182410B06190B1C11930463A463B4600F0D4
S3150000372880F809E00298B1693A460144304600F04B
S3150000373861F8316A304688472868A7E743F61530A6
S3150000374844F20C0244F28B13C0F20000C0F20002ED
S31500003758C0F200034FF48261FEF75EFAF0B581B05D
S315000037680446FFF735FC41F2C006C2F2000631688E
S31500003778054688420ED241F2B807C2F2000700BFDA
S315000037883868016841B1C0684FF0FF31006800F041
S3150000379810F8F5E7002007E041F2BC01C2F200018B
S315000037A80A68086001203A6020602846356001B042
S315000037B8F0BD70B541F2B802C2F2000212680646C0
S315000037C8D2680D46D468201DFEF7F7FB94F824004E
S315000037D8410704D400F0FA0084F8240004E02046E7
S315000037E831462A4600F006F8216A2046BDE87040B0
S315000037F80847D4D470B50546806914460E46014478
S31500003808284600BF334600F00CF848B1A869296A73
S31500003818064428468847A869224681192846F1E7BA
S3150000382870BD8C46014641F804CF9445006108D91D
S3150000383841F2B8009A42C2F200000AD29C4508D367
S315000038480DE08069D21A824209D241F2BC00C2F266
S31500003858000080B50068FEF793FB002080BD0120BC
S3150000386870470A46002100F009B810B500239A42AD
S3150000387803D0CC5CC4540133F9E710BD00239A4247
S3150000388808BF7047C1540133F9E7D4D410B50549C8
S315000038980446054AFFF7E9FF044805492044FFF7AF
S315000038A8E0FF10BD58000000000000000000000006
S315000038B8000000000249401A02490860704700BF2C
S315000038C808000000AC11002000D4D4D4090C010073
S315000038D8030000005900000000000000D038000076
S315000038E800000000000000000000000000000000CA
S315000038F800000000000000000000000000000000BA
S315000039080000FFFFFFFFFFFFDFDFDFDFDFDF000075
S315000039180000000000000000000000000000000099
S315000039280000000000000000000000000000000089
S3150000393800000000000000000000000024F4000061
S3150000394803000000127A0000000C00003503000096
S3150000395800000000E8380000010000000000000335
S315000039680000000000D4D4D401020304050E0E0C96
S315000039780C0100000100000000000000000000002B
S31500003988B5020000000000006039000000000000D9
S315000039980000000000000000000000000000000019
S315000039A80000000000000000000000000000FFFF0B
S315000039B8FFFFFFFFDFDFDFDFDFDF000000000000C3
S315000039C800000000000000000000000000000000E9
S315000039D800000000000000000000000000000000D9
S315000039E80000000000000000000001000A000000BE
S315000039F800800000000A0000C1030000000000006B
S31500003A089439000000000000757843726974696390
S31500003A18616C4E657374696E670076517565756578
S31500003A28416464546F5265676973747279002E2E07
S31500003A382F72612F6673702F7372632F726D5F66B4
S31500003A4872656572746F735F706F72742F706F72C0
S31500003A58742E630076506F7274456E746572437285
S31500003A6869746963616C0028202820282028207042
S31500003A787844656C617965645461736B4C697374D9
S31500003A8820292D3E75784E756D6265724F664974AC
S31500003A98656D73203D3D2028205542617365547934
S31500003AA870655F74202920302029203F202820288F
S31500003AB82042617365547970655F7420292031202E
S31500003AC829203A2028202820426173655479706598
S31500003AD85F74202920302029202920290076546166
S31500003AE8736B537769746368436F6E746578740093
S31500003AF8707578537461636B4275666665722021CA
S31500003B083D202828766F69642A293029002E2E2F11
S31500003B1872612F6177732F4672656552544F532F22
S31500003B284672656552544F532F536F757263652FEE
S31500003B3874696D6572732E630075635356434E75CB
S31500003B486D626572203C3D203300546D72510078D9
S31500003B58517565756547656E6572696353656E640B
S31500003B68002128202820785461736B4765745363B5
S31500003B78686564756C657253746174652829203D9F
S31500003B883D202820282042617365547970655F744A
S31500003B98202920302029202920262620282078544C
S31500003BA869636B73546F5761697420213D20302017
S31500003BB8292029004C454432205468726561640006
S31500003BC85F5F4E5649435F4765745072696F726905
S31500003BD8747947726F7570696E672829203C3D2095
S31500003BE82838202D203429202D20310028207078CF
S31500003BF851756575652029007078556E626C6F631E
S31500003C086B656454434200707853746174696351F8
S31500003C1875657565007848616E646C6500212820B5
S31500003C28282078436F7079506F736974696F6E20B6
S31500003C383D3D202820282042617365547970655FD0
S31500003C487420292032202920292026262028207081
S31500003C587851756575652D3E75784C656E6774681F
S31500003C6820213D20312029202900707854696D656E
S31500003C784F7574007578496E646578546F57616935
S31500003C88744F6E203C202831290075785072696F70
S31500003C9872697479203C2028352900785461736B41
S31500003CA8526573756D65416C6C00765461736B5023
S31500003CB86C6163654F6E4576656E744C69737452B4
S31500003CC865737472696374656400785461736B52C2
S31500003CD8656D6F766546726F6D4576656E744C696F
S31500003CE87374007578496E646578546F4E6F74699D
S31500003CF86679203C202831290070785461736B421C
S31500003D08756666657220213D202828766F69642AC3
S31500003D1829302900707276496E697469616C697315
S31500003D28654E65775461736B0070785469636B737D
S31500003D38546F57616974007852657475726E0028FD
S31500003D4828285343425F54797065202A2920282859
S31500003D5830784530303045303030554C29202B20CE
S31500003D68307830443030554C2920292D3E4943536C
S31500003D7852202620283078314646554C20292920BD
S31500003D883D3D2030007853697A65203D3D207369B2
S31500003D987A656F66282051756575655F74202900F8
S31500003DA878517565756553656D6170686F72655490
S31500003DB8616B650078517565756547656E657269ED
S31500003DC86343726561746553746174696300765000
S31500003DD86F727453564348616E646C65725F430034
S31500003DE870784576656E744C6973740076546173A1
S31500003DF86B47656E657269634E6F74696679476964
S31500003E08766546726F6D49535200785265747572BD
S31500003E186E20213D2028202D31202900535049208D
S31500003E28534C5620546872656164007851756575FF
S31500003E3865437265617465436F756E74696E675321
S31500003E48656D6170686F7265537461746963007833
S31500003E58517565756552656365697665007854615F
S31500003E68736B496E6372656D656E745469636B0036
S31500003E78785461736B546F4E6F74696679002E2E91
S31500003E882F72612F6177732F4672656552544F53AF
S31500003E982F4672656552544F532F536F757263657B
S31500003EA82F71756575652E6300707276437265614C
S31500003EB874655374617469635461736B002E2E2F95
S31500003EC872612F6177732F4672656552544F532F6F
S31500003ED84672656552544F532F536F757263652F3B
S31500003EE87461736B732E63004C45443120546872B9
S31500003EF86561640070784E65775175657565002152
S31500003F082820282028207076427566666572202942
S31500003F18203D3D202828766F69642A2930292029E2
S31500003F28202626202820282070785175657565205A
S31500003F38292D3E75784974656D53697A6520213D4A
S31500003F482028205542617365547970655F7420296D
S31500003F582030552029202900785461736B43686501
S31500003F68636B466F7254696D654F75740076506F52
S31500003F78727456616C6964617465496E74657272AF
S31500003F887570745072696F726974790070785175BA
S31500003F98657565007852657475726E20213D202816
S31500003FA8202820282042617365547970655F742043
S31500003FB82920302029202900765461736B506C61C2
S31500003FC863654F6E4576656E744C697374007851F7
S31500003FD87565756500765461736B537461727453B5
S31500003FE863686564756C65720075785363686564A3
S31500003FF8756C657253757370656E64656420213DD2
S315000040082030550070727650726F6365737352650F
S31500004018636569766564436F6D6D616E647300757B
S315000040286C43757272656E745072696F72697479D1
S31500004038203E3D2028282828312929203C3C2028B4
S3150000404838202D2034292929203E3E202838202DA5
S315000040582034290078517565756547656E657269FE
S3150000406863526573657400546D72205376630076E7
S31500004078506F727445786974437269746963616CC8
S3150000408800707851756575652D3E75784974656D4E
S3150000409853697A65203D3D203000282028202628AF
S315000040A82070785443422D3E784576656E744C6987
S315000040B873744974656D202920292D3E7078436FE5
S315000040C86E7461696E65722029203D3D2028287628
S315000040D86F69642A293029007854696D65724372BC
S315000040E86561746554696D65725461736B007578A2
S315000040F8546F705072696F7269747900212820288C
S315000041082070764974656D546F5175657565203DE7
S315000041183D202828766F69642A29302920292026F7
S3150000412826202820707851756575652D3E75784965
S3150000413874656D53697A6520213D202820554261B2
S315000041487365547970655F742029203055202920BD
S315000041582900756C5461736B47656E657269634EA9
S315000041686F7469667954616B65007853697A65205E
S315000041783D3D2073697A656F6628205443425F7413
S315000041882029002820707854696D65722D3E785470
S31500004198696D6572506572696F64496E5469636BBF
S315000041A873203E2030202900000000000080000017
S315000041B800000000008000000100000000800000F0
S315000041C802000000008000000300000000800000DC
S315000041D804000000000000000500000000000000C8
S315000041E80600000000000000080000000080000033
S315000041F80D000000000000000E0000000000000096
S315000042080F0000000004010600010000000401067A
S315000042180101000000000106020100000004010679
S315000042280301000000000000050100000000000076
S31500004238060100000000000007010000000C010054
S3150000424808010000000C010509010000000C010529
S315000042580A010000000000000B0100000000000039
S315000042680D0100000000000005020000040C01001A
S3150000427806020000040C010007020000000000000E
S3150000428808020000000C0100000300000000000006
S31500004298010300000040000004030000050C0000B4
S315000042A800040000050C00000104000000000000E6
S315000042B802040000000000000304000000000000E3
S315000042C807040000000000000804000000000000C9
S315000042D809040000000C01040A040000000C010493
S315000042E80B04000000000000000500002800000084
S315000042F8B44100000000000000000000C6000A00EB
S31500004308C901CA01CD01CC01020403040404D4D4B2
S3150000431800000020000000200300000038430000D1
S31500004328040000005C430000010000001843000080
S3150000433800000020000000200000000318040020F0
S31500004348B011002000000003B0110020B0110020B9
S3150000435800000003000000200000002000000060AC
S3150000436800010C03000000200000002000000008E7
S315000043780000020300000020000000205800000092
S3150000438800000103B0110020B01100205800000001
S315000043980000010301000200080010002000D4D428
S315000043A80400000000000406362E342E3000427544
S315000043B8696C7420776974682052656E65736173D9
S315000043C820416476616E63656420466C657869622F
S315000043D86C6520536F667477617265205061636BF4
S315000043E86167652076657273696F6E20362E342E86
S307000043F830008D
S3090100A100FFFFFFFF58
S3090100A200FFFDFFFF59
S70500001E21BB
