S019000050726163746963654650425F52413645322E7372656369
S3150000000000040020C90F0000790E0000D30F000085
S31500000010D30F0000D30F0000D30F0000D30F000052
S315000000200000000000000000000000009D0200002B
S31500000030D30F000000000000B50200001D03000001
S309000000406F0A00003D
S3150000004440F6035540F69C06C4F20805C4F20806B9
S3150000005402F0E2F940F27841C2F2000140F284442F
S315000000640860C2F2000443F25C21C0F2000120469B
S3150000007400F04AFB204600F0F3FC40F6002443F669
S31500000084FA7A4FF000080127C2F20004CFF6FE7A8E
S315000000944FF0800B4FF00009002001214FF0FF3292
S315000000A402F0D3F9EFF3108087F31088216819B9A9
S315000000B4402185F80080297021680131216080F390
S315000000C41088306849F0040100EA0A00C9B20843FE
S315000000D43060EFF3108087F31088216811B121682E
S315000000E401392160216819B985F8008085F800B0C6
S315000000F480F3108889F00109CEE7022818BF7047FB
S3150000010440F27C4043F2B431C2F20000C0F2000176
S3150000011400F050BA80B582B000790021019138B957
S3150000012440F27840C2F20000006801AA02F0E5F944
S3150000013402B080BD80B584B040F2AC40C2F200008B
S31500000144016840F2184C0131016040F67040C2F279
S3150000015400000121CDE9001040F2A11042F69151B0
S3150000016442F67823C2F2000CC0F20000C0F200018D
S31500000174C0F200038022CDF808C001F017FC40F25B
S315000001847841C2F20001086008B104B080BD0020C5
S31500000194002104B0BDE8804000F00CB810B5044658
S315000001A400F00AF82046BDE81040FFF749BF704743
S315000001B4FFF7FDBF00BE7047B0B540F2A444C2F2DB
S315000001C4000420684FF0FF3101F0D4FA012803D06F
S315000001D420680021FFF7EEFF40F2A840C2F20000BB
S315000001E4017801B1B0BD01210170FFF7E1FF40F2D2
S315000001F4AC45C2F2000500BF286801382860F1D07A
S31500000204206800210022002301F08AF80128F3D097
S3150000021420680021FFF7CEFFEEE780B540F2AC4040
S31500000224C2F200000021016040F2A840C2F20000C0
S3150000023440F2B0420170C2F200024FF48070012114
S3150000024401F04DF840F2A441C2F20001086018B969
S3150000025400200021FFF7AEFFFFF76CFF01F03BFE25
S31500000264002080BD40F2F843C2F20003036040F26E
S315000002745850C2F20000086080201060704740F2B7
S315000002845873C2F20003036040F2B870C2F2000071
S3150000029408608020106070471EF0040F0CBFEFF357
S315000002A40880EFF309800149084700004303000072
S315000002B40F4B1968EFF309821EF0100F08BF22EDE9
S315000002C4108A22E9F04FEFF30B8342F8043D0A60EB
S315000002D44FF0100080F31188BFF34F8FBFF36F8F79
S315000002E401F0AAFD4FF0000080F3118800F002B877
S315000002F4680A0020074801680A6802CA81F30B8865
S31500000304B2E8F04F1EF0100F08BFB2EC108A82F369
S3150000031409887047680A002010B5EFF3118410208D
S3150000032480F3118801F054FE30B14EF60450CEF23B
S3150000033400004FF08051016084F3118810BD80697C
S3150000034410F8020C022808BFFFF7D4BF042838BFF0
S31500000354704780B542F6A22042F6446242F6AD33B7
S31500000364C0F20000C0F20002C0F200034FF47E7136
S3150000037400F036FD283140F8481D40F2A131C0F2A4
S3150000038400014FF0807C22F00102C1636FF002018C
S315000003940264C0F844C0C0E90913704700BE00BF38
S315000003A4FEE7D4D44EF62250CEF20000F0210170BE
S315000003B400F016F84EF63470CEF20000016841F0F3
S315000003C44041016062B6BFF36F8FEFF3148C2CF0DB
S315000003D4040C8CF31488BFF36F8F02DF00BEFDE7B5
S315000003E440F61420C2F20000006844F6D351C1F26C
S315000003F46201A0FB01014FF0FF3000EB91110020D8
S31500000404B0EB116F18BF70474EF21002CEF2000225
S3150000041451604EF62351CEF20001F0230B7090602A
S315000004240720106070471021EFF3118081F31188C3
S3150000043440F6B811C2F200010A68531C0B605AB99F
S3150000044440F6BC11C2F2000108604EF60450CEF22A
S3150000045400000068C00500D1704780B542F6A220AE
S3150000046442F6C82242F6B553C0F20000C0F20002BA
S31500000474C0F2000340F2A44100F0B2FC40F6B8100A
S31500000484C2F20000016859B10139016018BF704712
S3150000049440F6BC10C2F20000006880F31188704771
S315000004A480B542F6A22043F2CA0242F67C23C0F289
S315000004B40000C0F20002C0F2000340F2AD4100F0B9
S315000004C48FFC88B14EF20C00C4F20100B0F90010A2
S315000004D4B1F1FF3F09DDBFF34F8F30BFBFF36F8F1D
S315000004E462B6BFF36F8F72B6704780B54EF2FE32B6
S315000004F4C4F20102B2F800E04AF2025CCFF6FF7CD5
S315000005040023A2F800C003804EF425431380BFF3F2
S315000005144F8F30BFBFF36F8F62B6BFF36F8F72B664
S315000005241388A2F800C0018043F42540108080BDE2
S3150000053480B572B601F05DFB0120FFF7C2FF62B61B
S31500000544BDE8804001F0B0BB80B5EFF303801038FE
S3150000055440B2002806D44EF20041CEF20001405CBF
S315000005640F2817D94EF60C50CEF20000006840054D
S3150000057458BF80BD42F6A22042F6C87242F628430E
S31500000584C0F20000C0F20002C0F2000340F2216192
S3150000059400F026FC42F6A22042F6C87243F27A0321
S315000005A4C0F20000C0F20002C0F2000340F20F6184
S315000005B400F016FC80B545F25422C5F24F020260E3
S315000005C4084600F003F8002080BDD4D470B5044674
S315000005D400F05CF840F6002CEFF31080012181F363
S315000005E41088C2F2000CDCF8001039B940F6035149
S315000005F4C4F2080100220A7040220A70DCF80010D6
S315000006040131CCF8001080F31088208810B340F62E
S31500000614000E0021C4F2080E606800EBC102928845
S3150000062450F83130100ADD03D2B20BD50EEB80152B
S3150000063455F8226026F4803645F8226023F4803685
S3150000064445F822600EEB801040F8223020880131F4
S315000006548142E1D3EFF31081012080F31088DCF8A6
S31500000664000020B1DCF800000138CCF80000DCF80A
S31500000674000038B940F60350C4F2080000220270A4
S315000006848022027081F3108870BDD4D42DE9F04124
S3150000069404460088B0B343F2C23843F2400700254B
S315000006A4C0F20008C4F20807002600BF606838F8E4
S315000006B4162000EBC500818891421CD1006800F029
S315000006C4B85117F91600B1F1807F07D1002812D46A
S315000006D417F8160060F07F0007E000BFB0F1FF3F97
S315000006E409DC17F8160000F07F0007F81600C8208A
S315000006F4012100F078FB0136032ED7D1208801357D
S315000007048542D1D3BDE8F0812DE9F0410246087C4B
S31500000714012404FA00F0D06051601474087C49F294
S315000007240003C4F2160303EB002090604869002717
S31500000734506188699761D061D1F81C80EFF310800D
S3150000074484F3108844F210050C7CC4F208054FF0BB
S31500000754004C2E682CFA04F4A6432E602E6880F30F
S31500000764108890684FF4254606609068C7629068C2
S31500000774C763906887640E78087A032E96684FEAF2
S31500000784C0504D6808BF00F58030F0629068C0F82C
S3150000079410C09068C0F814C09068C0F818C090687B
S315000007A4476290688762D8F818009668F061D8F8AE
S315000007B41C009668306290686E1E8666906846666F
S315000007C45068D8F850C0C06900F1300490F8486009
S315000007D4FE40F6070DD03B4654F827609568042F73
S315000007E408BF0323032F08BF0423013E05EB83033D
S315000007F4DE640137062FE9D1087C052802D8906803
S31500000804002343649068002383639068C0F88830AB
S31500000814D8F8500040B998F8200098F821304003E1
S3150000082440EA43704CEA000C98F8480093680028A4
S315000008344FF4A00008BF4FF4AA001864906803237D
S31500000844C0F834C090684EF2001C0363936801201C
S315000008541863D2E9023740F6042EDF6091F912409C
S3150000086446F20033CEF2000CC4F20003002CC2F2AE
S31500000874000E1BD4497C0CEB0405090185F8001312
S315000008844EF8242053F8241021F4803143F8241020
S3150000089453F8241004F01F01884061090CEB81040D
S315000008A4BFF35F8FC4F880014CF8210098F9280043
S315000008B400281ED498F822100CEB0004090184F8D1
S315000008C400134EF8202053F82010012421F480311F
S315000008D443F8201053F8201000F01F01400904FAD1
S315000008E401F10CEB8004BFF35F8FC4F880114CF860
S315000008F4201098F9290000281ED498F823100CEB30
S315000009040004090184F800134EF8202053F820103F
S31500000914012421F4803143F8201053F8201000F00C
S315000009241F01400904FA01F10CEB8004BFF35F8F49
S31500000934C4F880114CF8201098F92A0000281ED417
S3150000094498F824100CEB0004090184F800134EF8FF
S31500000954202053F82010012421F4803143F820107C
S3150000096453F8201000F01F01400904FA01F10CEBC2
S315000009748004BFF35F8FC4F880114CF8201098F9F7
S315000009842B0000281ED498F825100CEB000409014E
S3150000099484F800134EF8202053F82010012421F483
S315000009A4803143F8201053F8201000F01F0140094D
S315000009B404FA01F10CEB8004BFF35F8FC4F88011D5
S315000009C44CF8201098F92C0000281ED498F826100C
S315000009D40CEB0004090184F800134EF8202053F8A8
S315000009E42010012421F4803143F8201053F82010FC
S315000009F400F01F01400904FA01F10CEB8004BFF377
S31500000A045F8FC4F880114CF8201098F92D00002847
S31500000A141ED498F827100CEB0004090184F800137F
S31500000A244EF8202053F8201021F4803143F820108A
S31500000A3453F8201000F01F010123400903FA01F1C5
S31500000A440CEB8003BFF35F8FC3F880114CF82010C2
S31500000A5445F25401C0F2470100201160BDE8F0815F
S31500000A64D0E9021200204A607047F0B583B0EFF374
S31500000A7403814FF0704246F2003002EB0161C4F28A
S31500000A8400008A15135823F480331350135840F684
S31500000A940423C2F200039F587A681378012B40F0AE
S31500000AA4AE80D7E90235D2699D60BB6800259D6496
S31500000AB4BB680916DD64BB684EF2802C1D6550F8D0
S31500000AC42130012523F4803340F8213050F82130B9
S31500000AD401F01F03CEF2000C05FA03F34909BFF334
S31500000AE45F8F4CF8213092F84830D90717D092F925
S31500000AF42850002D13D450F82510012321F48031F9
S31500000B0440F8251050F8251005F01F0103FA01F1ED
S31500000B146B09BFF35F8F4CF8231092F8483099079E
S31500000B2415D592F92930002B11D450F8231001253C
S31500000B3421F4803140F8231050F8231003F01F01EC
S31500000B4405FA01F15B09BFF35F8F4CF8231092F9A4
S31500000B542A30002B11D450F82310012521F48031BA
S31500000B6440F8231050F8231003F01F0105FA01F191
S31500000B745B09BFF35F8F4CF8231092F92B30002BDF
S31500000B8411D450F82310012521F4803140F82310A4
S31500000B9450F8231003F01F0105FA01F15B09BFF3B6
S31500000BA45F8F4CF8231092F92C30002B11D450F897
S31500000BB42310012521F4803140F8231050F8231026
S31500000BC403F01F0105FA01F15B09BFF35F8F4CF8CF
S31500000BD4231092F92D20002A11D450F8221021F462
S31500000BE4803140F8221050F8220002F01F00012143
S31500000BF401FA00F05109BFF35F8F4CF821007869C0
S31500000C04A8B1B8696D4628B1024692E8580029464B
S31500000C1458C100E02846002101718160F96901602C
S31500000C2479698847B86910B195E80E000EC003B01B
S31500000C34F0BD4EF22000C4F20100817940F2004278
S31500000C440068C2F2000252F82110C0F3026021FAD1
S31500000C5400F040F61421C2F2000108607047D4D4B3
S31500000C642DE9F0414EF28044C4F201044CF2001521
S31500000C744AF20350C4F2010524F8820C0120A8802C
S31500000C84A8880028FCD147F200010120C4F2000123
S31500000C9428808860086040F2004742F600504CF213
S31500000CA4002C4EF22006C2F20007C0F2311041F2C7
S31500000CB400214FF40042C0F6EB3CC4F20106C0F238
S31500000CC47A01002387E80F00C7E9042CB07931685C
S31500000CD457F82000C1F3026140F61428C840C2F256
S31500000CE40008C8F80000207810B9607880073CD066
S31500000CF4207840B901202070C820012100F073F843
S31500000D0420780128FCD10020607020700020B07586
S31500000D14307FC007FCD041F2103030810020B07221
S31500000D24307F8006FCD50320287741F22120C2F2C9
S31500000D34000030600520B071B079316857F82000A2
S31500000D44C1F30261C840C8F8000042F20800C4F2C8
S31500000D540000F121017101210170F02101714FF4AC
S31500000D64254024F8820CBDE8F0814FF47A7000F037
S31500000D7401F8CBE77047D4D4B0B543F22404C4F2E7
S31500000D8408040025C8200121257100F02CF82570DF
S31500000D9420780028FCD1207840F00200207000BFA3
S31500000DA420788007FCD4002004F8020C14F8020C06
S31500000DB40028FBD10020012104F11C0212F8103096
S31500000DC403F07F0302F8103012F91030002BFBD425
S31500000DD4C9074FF001004FF0000108BFB0BDEDE7B1
S31500000DE400BE00BFFEE740F61422C2F200021268FB
S31500000DF441F20023C0F27A039A4201FB00F00FD3BA
S31500000E0440F6FF01C0F23D0111444DF68362C4F27F
S31500000E141B32A1FB0212110DA0FB0101E9B11FE077
S31500000E244CF6002348F63811C3F69A33C0F2410152
S31500000E34B3FBF2F2884207D24FF47A7100FB01F059
S31500000E44B0FBF2F0800808E09200B0FBF2F08842B2
S31500000E5406D24FF47A7100FB01F028B100F005B810
S31500000E644FF0FF3000F001B8704701380028FCD17C
S31500000E747047D4D42DE9F04146F22018C4F2000894
S31500000E84B8F80000B8F8201040F6C01501EA0006CC
S31500000E94B7B20024C2F2000527FA04F0C00704D052
S31500000EA455F8241009B1204688470134102CF3D193
S31500000EB4A8F81060BDE8F08170B584B048F2480423
S31500000EC40320C4F2000400F055F843F2C031C0F226
S31500000ED400010E886FF0FF0020604FF0FF30039092
S31500000EE40290019016B16FF0010001904EF280322B
S31500000EF4002001A9CEF2000251F8203004EB80054F
S31500000F04AB6242F8203001300328F5D1032000F00B
S31500000F1408F826B146F20030C4F20000066004B0B8
S31500000F2470BD0122EFF3108182F3108840F6082287
S31500000F34C2F2000232F8103023B132F81030013B0D
S31500000F4422F8103032F810208AB94EF2FE3CC4F270
S31500000F54010C43F24C42BCF80030C0F2000232F8F5
S31500000F64100043F4254222EA0000ACF8000081F3A5
S31500000F741088704780B50122EFF3108182F3108840
S31500000F8440F60822C2F2000232F810308BB94EF253
S31500000F94FE3C43F24C43C4F2010CC0F20003BCF81D
S31500000FA400E033F8103043EA0E0343F42543ACF86B
S31500000FB4003032F81030013322F8103081F31088F3
S31500000FC480BDD4D400F006F8FFF727F9FEE700BE8B
S31500000FD47047D4D4B0B54EF60850CEF200004FF4A4
S31500000FE47001C0F8801040F20001C0F200010160F7
S31500000FF400200024FFF781F8FFF732FE0120FFF7F7
S315000010047CF840F20000C2F2000080F30A88002057
S3150000101400F050F8FFF70DFEFFF7AEFE0320FFF7D2
S31500001024A9FF40F61050C4F208004FF6FF7100BF46
S3150000103420F814100134092CFAD10320FFF771FFAC
S315000010440320FFF797FF0420C4F20E00002101607D
S3150000105441608160C1600320FFF763FF0220FFF750
S315000010644CF8012000F026F840F66C44C2F2000465
S31500001074204601F0E1FC204601F0F2FC43F2AA40CE
S3150000108443F2AA41C0F20000C0F20001081A84101B
S31500001094012C08DB43F2AA45C0F2000555F8040BFF
S315000010A48047013CFAD1FFF707FF0020BDE8B040B6
S315000010B400F02DB8F0B581B043F2D035C0F200058A
S315000010C42E68044676B16868071D00BF78798442A5
S315000010D404D157E90101091A01F099FC013E07F10F
S315000010E40C07F3D1AE6886B1E86800F1080500BFC5
S315000010F46879844205D155E902022968121A01F079
S315000011048AFC013E05F11005F2D101B0F0BD70472D
S315000011144FF0FF31024642F8081F0021C0E90322BE
S31500001124C0E90012704700210161704780B5D1F80B
S3150000113400C01CF1010207D000F10802964652686D
S3150000114413686345FAD903E0D0F810E0DEF804200A
S315000011544A609160C1F808E0CEF80410086101689D
S315000011640131016080BDD0E90123016993604268C1
S315000011745A604A68824201D182684A60002202614A
S31500001184086801380860704770B500284BD00446DB
S31500001194C06BC0B30E46216CA0FB010199BBFFF7DF
S315000011A442F92068D4E90F12002502FB0103013934
S315000011B401FB0201A563C4E90103FF20E16084F891
S315000011C4440084F8450004F110004EB1FFF7A0FF77
S315000011D404F12400FFF79CFFFFF750F9012070BDCE
S315000011E401680029F8D001F02DF80028F4D04EF655
S315000011F40450CEF200004FF080510160BFF34F8FD0
S31500001204BFF36F8FE8E742F6E56043F2AF0242F6BA
S31500001214EF73C0F20000C0F20002C0F200034FF404
S31500001224B671FFF7DDFD42F6E56043F2AF0242F622
S31500001234E773C0F20000C0F20002C0F2000340F2FD
S315000012443711FFF7CDFD10B582B043B3B8B11C46D4
S3150000125401B9A2B901B192B148230193019B482B6C
S315000012642DD1019B002908BF2246C4E90F0120465F
S3150000127401212260FFF788FF204602B010BD42F626
S31500001284E56042F62A6242F64F73C0F20000C0F2ED
S315000012940002C0F200034FF4D871FFF7A1FD42F635
S315000012A4E56042F62A6242F66F43C0F20000C0F2DD
S315000012B40002C0F200034FF4C271FFF791FD42F63B
S315000012C4E56042F62A6242F6FB53C0F20000C0F221
S315000012D40002C0F200034FF4CB71FFF781FDB0B5F5
S315000012E482B060B10D46814209D81446002100221D
S315000012F42346FFF7A8FF2046A56302B0B0BD42F619
S31500001304E56042F6926242F67D43C0F20000C0F206
S315000013140002C0F200034FF45E71FFF761FDD4D4FE
S315000013242DE9F04F85B00028049200F09D8099467F
S315000013341546044619B9206C002840F0C580B9F159
S31500001344020F03D1E06B012840F0AE80019101F059
S3150000135469F810B9002D40F09780FFF764F8A06B88
S31500001364B9F1020F59D0E16B884256D304F1100744
S31500001374012002AE4FF0000B04AD00BF0499002912
S3150000138466D0C00702D0304600F0E2FFFFF776F8D9
S3150000139400F02FFCFFF747F894F84400FF2808BF35
S315000013A484F844B094F84500FF2808BF84F845B093
S315000013B4FFF764F83046294600F0D7FF00284AD1E3
S315000013C4FFF731F8D4F838A0D4F83C80FFF756F884
S315000013D4C24515D10499384600F0D6FE204600F0E1
S315000013E4B5F800F061FC80B94EF60450CEF2000068
S315000013F44FF080510160BFF34F8FBFF36F8F04E04E
S31500001404204600F0A3F800F04FFCFFF70CF8A06BA1
S31500001414E16B88424FF00000B0D2019920464A465B
S3150000142400F062F854F8240F70B1204600F00AFF69
S3150000143450B14EF60450CEF200004FF080510160D8
S31500001444BFF34F8FBFF36F8FFFF718F8012008E043
S31500001454FFF714F804E0204600F078F800F024FCC6
S31500001464002005B0BDE8F08F42F6E56042F6C332CF
S3150000147442F6E773C0F20000C0F20002C0F20003B5
S3150000148440F2B631FFF7ACFC42F6E56042F6C332F1
S3150000149442F6D533C0F20000C0F20002C0F20003E7
S315000014A440F2BB31FFF79CFC42F6E56042F6C332DC
S315000014B442F68543C0F20000C0F20002C0F2000307
S315000014C44FF46E71FFF78CFC42F6E56042F6C332C8
S315000014D443F25713C0F20000C0F20002C0F2000348
S315000014E440F2B731FFF77CFC70B5866B036C04469B
S315000014F443B31546CAB1E0681A4601F08CFAE168AE
S31500001504206C2268091A9142E16003D2A168404224
S315000015140844E060A81EB0FA80F040093146002E67
S3150000152418BF01210840361A0CE060681A4601F01B
S3150000153472FAD4E90101226C10448842606001D336
S3150000154420686060701CA06370BDD4D4F0B581B00F
S315000015540446FEF768FF94F94560012E0EDB04F19C
S31500001564240500BF286848B1284600F06BFE08B180
S3150000157400F04BFF70B2013E0128F3DCFF2684F82D
S315000015844560FEF77BFFFEF74EFF94F94470012F8A
S315000015940EDB04F1100500BF286848B1284600F0A8
S315000015A451FE08B100F031FF78B2013F0128F3DCA7
S315000015B484F8446001B0BDE8F040FEF75FBFD4D4C0
S315000015C42DE9F04F83B00028029200F0A28016465F
S315000015D48946044619B9206C002840F0BA8000F008
S315000015E421FF10B9002E40F0A480FEF71CFFD4F8AA
S315000015F438A0BAF1000F28D0226C52B1D4E9020106
S315000016041144E160814224BF2168E160484601F04B
S3150000161402FA54F8100FAAF10101A16270B1204632
S3150000162400F010FE50B14EF60450CEF200004FF01A
S3150000163480510160BFF34F8FBFF36F8F0124FEF714
S315000016441DFF204603B0BDE8F08F04F124080120F5
S315000016546F464FF0000B02AE0299002955D0C00721
S3150000166402D0384600F074FEFEF708FF00F0C1FA17
S31500001674FEF7D9FE94F84400FF2808BF84F844B066
S3150000168494F84500FF2808BF84F845B0FEF7F6FE37
S315000016943846314600F069FE60B12046FFF756FF32
S315000016A400F002FBFEF7BFFEA56BFEF7E7FE75B37F
S315000016B422E000BFFEF7B7FEA56BFEF7DFFE2DB1F5
S315000016C42046FFF743FF00F0EFFA15E00299404683
S315000016D400F05AFD2046FFF739FF00F0E5FA58B945
S315000016E44EF60450CEF200004FF080510160BFF375
S315000016F44F8FBFF36F8F00BFFEF795FED4F838A067
S315000017040020BAF1000FA7D076E7002497E700245B
S3150000171497E742F6E56042F6B66242F65443C0F2F3
S315000017240000C0F20002C0F2000340F2E951FFF7E4
S3150000173457FB42F6E56042F6B66242F6D533C0F28E
S315000017440000C0F20002C0F2000340F2F251FFF7BB
S3150000175447FB42F6E56042F6B66242F65A73C0F2B9
S315000017640000C0F20002C0F2000340F2ED51FFF7A0
S3150000177437FBD4D42DE9F04F83B00028029100F052
S315000017848E800446006C002840F099800D4600F0D7
S3150000179449FE10B9002D40F0A280FEF744FEA16B6D
S315000017A4D1B154F8100F0139A16270B1204600F08E
S315000017B449FD50B14EF60450CEF200004FF0805170
S315000017C40160BFF34F8FBFF36F8F0124FEF756FE00
S315000017D4204603B0BDE8F08F4EF6045904F1240800
S315000017E401206E464FF0000B02AFCEF200094FF017
S315000017F4805A00BF029900294DD0C00702D0304656
S3150000180400F0A6FDFEF73AFE00F0F3F9FEF70BFE34
S3150000181494F84400FF2808BF84F844B094F84500BF
S31500001824FF2808BF84F845B0FEF728FE304639463F
S3150000183400F09BFD60B12046FFF788FE00F034FA05
S31500001844FEF7F1FDA56BFEF719FE35B31CE000BFEC
S31500001854FEF7E9FDA56BFEF711FE2DB12046FFF755
S3150000186475FE00F021FA0FE00299404600F08CFC68
S315000018742046FFF76BFE00F017FA28B9C9F800A056
S31500001884BFF34F8FBFF36F8FFEF7CDFDA16B002023
S315000018940029AFD085E7002498E7002498E742F6AC
S315000018A4E56042F6166242F65443C0F20000C0F206
S315000018B40002C0F2000340F28261FFF791FA42F699
S315000018C4E56042F6166243F2DC03C0F20000C0F2A1
S315000018D40002C0F2000340F28661FFF781FA42F685
S315000018E4E56042F6166242F6D533C0F20000C0F255
S315000018F40002C0F2000340F28B61FFF771FAD4D400
S31500001904B0B500B3D1B140F6182E4FF0000CC2F2B8
S31500001914000E0022002300BF0EEB02046568A842F5
S315000019240DD023B92368002B18BF6446234608321A
S31500001934502AF1D1002B18BFC3E90010B0BD2346CD
S31500001944C3E90010B0BD42F6E56042F68E2243F2CA
S315000019542903C0F20000C0F20002C0F2000340F600
S31500001964C931FFF73DFA70B515460E460446FEF733
S315000019745AFD94F84400FF2804BF002084F844006C
S3150000198494F84500FF2804BF002084F84500FEF7BC
S3150000199475FDA06B28B904F1240031462A4600F0EF
S315000019A414FC2046BDE87040FFF7D0BD2DE9F04F8A
S315000019B481B00B9D002D00F0DC800C9C002C00F007
S315000019C4E8808146602000900098602840F0F1800D
S315000019D400980E460A9F204660219846924601F0DA
S315000019E416F8256366B104F134000021725C425492
S315000019F41AB10F2901F10101F8D1002084F843003E
S31500001A04052F80F0E68005EB8A000438251D20F0BA
S31500001A1407062846E762FFF786FB04F11800FFF77E
S31500001A2482FBC7F10500216BA06130464A46434656
S31500001A3424616462FEF79EFC2060FEF7F4FC40F627
S31500001A448C20C2F20000016840F6682B0131016067
S31500001A54C2F2000BDBF8001040F6702A40F6982715
S31500001A64C2F2000AC2F2000761B1DAF800000028E7
S31500001A7440D1DBF80000E16AC06A884298BFCBF81F
S31500001A84004037E0CBF800400068012832D1002638
S31500001A94B819FFF73DFB1436642EF9D140F64438E5
S31500001AA4C2F200084046FFF733FB40F65839C2F24B
S31500001AB400094846FFF72CFB40F61830C2F2000036
S31500001AC4FFF726FB40F67420C2F20000FFF720FB66
S31500001AD440F60030C2F20000FFF71AFB40F6383039
S31500001AE4C2F20000C0F8008040F63C30C2F20000AA
S31500001AF4C0F8009040F66C20C2F200000168013183
S31500001B04016040F6FC21C2F20001E06A0A689042D4
S31500001B1488BF086000EB800007EB80004068A06087
S31500001B248168E1604D608560E06A00EB800007EB48
S31500001B348001616157F82010013147F82010FEF743
S31500001B449DFCDAF8000080B1DBF80000E16AC06AA7
S31500001B5488420AD24EF60450CEF200004FF080516D
S31500001B640160BFF34F8FBFF36F8F204601B0BDE80E
S31500001B74F08F42F6247042F6107242F66433C0F2D5
S31500001B840000C0F20002C0F2000340F2F141FFF788
S31500001B9427F942F6247042F6107242F66153C0F2F7
S31500001BA40000C0F20002C0F2000340F2F241FFF767
S31500001BB417F942F6247042F6107243F2C513C0F2C6
S31500001BC40000C0F20002C0F2000340F2FA41FFF73F
S31500001BD407F942F6247042F67C5242F6F243C0F20A
S31500001BE40000C0F20002C0F2000340F26471FFF785
S31500001BF4F7F840F69020C2F2000001680131016056
S31500001C0470472DE9F04381B00E4640F69421C2F2A6
S31500001C1400010D6840F63831C2F20001D1F80080A7
S31500001C2440F63C3140F66824C2F20001C2F20004D8
S31500001C34D1F8009021680746081DFFF794FA781C2E
S31500001C4416D1AEB140F60030C2F20000D0E900125F
S31500001C54236801319A6093682768FB602768043714
S31500001C645F6023680433936022680160506117E063
S31500001C742068ED194560206800F1040105D3484643
S31500001C8401B0BDE8F043FFF751BA4046FFF74EFAFC
S31500001C9440F62C30C2F2000001688D4238BF056060
S31500001CA401B0BDE8F083D4D42DE9F047FEF7BBFBC1
S31500001CB440F69020C2F200000168002900F0AC80D2
S31500001CC4016801390160006828B10024FEF7D6FBDB
S31500001CD42046BDE8F08740F68C20C2F2000000687A
S31500001CE40028F2D040F61830C2F20000016840F62F
S31500001CF4143A40F668290029C2F2000AC2F2000921
S31500001D0464D040F6FC2240F698230021C2F2000279
S31500001D14C2F200034FF0010CC768FC68D4E90775EA
S31500001D24A66ABD60E7696F60776804F11805AF427B
S31500001D3401D1276A7760A1623768013F3760D4E929
S31500001D4402656769B560A6686E607D68261DB54242
S31500001D5401D1E5687D6061613D68013D3D60E76AEA
S31500001D641568AF4288BF176007EB870703EB870741
S31500001D747F68A760BD68E5606E60BE60E76A07EBD2
S31500001D84870703EB8706666153F82760013643F835
S31500001D942760E76AD9F80060F66AB74288BFCAF8CE
S31500001DA400C00768002FB7D140F63830C2F20000F1
S31500001DB40168096819B10068C068006801E04FF05D
S31500001DC4FF3040F62C31C2F20001086040F6343888
S31500001DD4C2F20008D8F8006056B1012400F0F8F801
S31500001DE408B1CAF80040013EF8D10020C8F8000046
S31500001DF4DAF8000000283FF468AFD9F800004EF680
S31500001E040450CEF200004FF080510160BFF34F8FB3
S31500001E140124BFF36F8F59E742F6247042F603524A
S31500001E2443F24403C0F20000C0F20002C0F2000311
S31500001E3440F68B71FEF7D4FF80B540F69020C2F2CF
S31500001E440000006830B140F61430C2F200000121EF
S31500001E54016080BD40F61430C2F20000002140F655
S31500001E64FC2C0160C2F2000CDCF8001040F698234A
S31500001E7401EB8102C2F2000353F8220003EB820253
S31500001E8430B900BFB9B152F8140D01390028F9D0A0
S31500001E945068436802F108008342536001D1D36855
S31500001EA45360D86840F66822C2F200021060CCF88B
S31500001EB40010106880BD42F6247042F6513243F297
S31500001EC44913C0F20000C0F20002C0F2000341F25E
S31500001ED4FA31FEF785FFB0B58AB044F24940C4F240
S31500001EE44C500024069005A804A903AA8DF81C40AA
S31500001EF4CDE90444FEF7B6F9DDE90320059DCDE9F5
S31500001F04004042F26560C0F2000006A90023029573
S31500001F14FFF74CFD40F63030C2F20000056065B3B1
S31500001F2400F0B5FB012811D0013026D142F6247009
S31500001F3443F2300242F68063C0F20000C0F20002AF
S31500001F44C0F2000340F6A961FEF74AFF40F62C31C1
S31500001F54C2F200014FF0FF32012080F310880A60BC
S31500001F6440F67021C2F20001086040F69420C2F2E5
S31500001F74000000210160FEF715FA43F25840C0F252
S31500001F84000000680AB0B0BD70B540F68824C2F2FD
S31500001F9400042068D0B140F6742540F68C26C2F2BF
S31500001FA40005C2F2000600BFFEF73DFAE868C06805
S31500001FB40430FFF7D8F830680138306020680138FB
S31500001FC42060FEF75BFA20680028EDD170BDD4D4FA
S31500001FD42DE9F04740F69020C2F20000006848B1AF
S31500001FE440F63430C2F2000001680131016000207D
S31500001FF4BDE8F08740F69420C2F20000016840F67E
S315000020042C3C4A1CC2F2000C026022D340F6383043
S31500002014C2F2000001680968002940F09F8040F67A
S315000020243C33C2F2000301681F680760196040F67A
S315000020344031C2F200010B6801330B600168096884
S3150000204419B10068C068006801E04FF0FF30CCF8B1
S315000020540000DCF80000824201D2002074E040F661
S31500002064383AC2F2000ADAF800004FF000090068B4
S31500002074002864D040F6FC2E40F6982440F66828E2
S31500002084C2F2000EC2F20004C2F20008002000BF31
S31500002094DAF80050ED68EE68374657F8045FAA424E
S315000020A450D3D6E9021375698B60B16859606968C3
S315000020B4B94201D1F1686960C6F8149029680139FA
S315000020C42960B56A85B1D6E907138B60F169596051
S315000020D4696806F11803994201D1316A6960C6F844
S315000020E42890296801392960F56ADEF800108D42C6
S315000020F405EB850188BFCEF8005004EB81014968E1
S31500002104B1608B68F3605F608F60F16A01EB8101F7
S3150000211404EB8103736154F82130013344F8213010
S31500002124F16AD8F80030DB6ADAF80050994288BFC1
S31500002134012029680029ABD14FF0FF3502E04FF0AA
S31500002144FF350020CCF8005040F61431C2F20001ED
S315000021540968002918BF0120BDE8F08742F62470FB
S3150000216442F6C46242F6DB23C0F20000C0F200026B
S31500002174C0F2000341F25F21FEF732FE40F69420DE
S31500002184C2F200000068704710B570B10C4640F604
S315000021946821C2F2000109681831FEF7C7FF20461C
S315000021A40121BDE81040FFF72CBD42F6247043F22E
S315000021B4130242F65663C0F20000C0F20002C0F2F7
S315000021C400034FF4A451FEF70BFE10B550B340F6CE
S315000021D4682CC2F2000C0346D0F804E0DCF80000D8
S315000021E4002AC0F81CE0DEF80800DCF80040206293
S315000021F4DCF8004004F118044460DCF8000000F147
S315000022041800CEF80800DCF800008362186818BFCE
S315000022144FF0FF31441C084611461C60BDE81040CF
S31500002224FFF7EFBC42F6247042F6125242F65663AA
S31500002234C0F20000C0F20002C0F2000341F2BE4147
S31500002244FEF7CEFD80B5C068C068002870D0D0E91E
S315000022540713826A8B60C1695960536800F11801DB
S315000022648B4201D1036A5360002383621368013BE6
S31500002274136040F69022C2F2000212688AB140F658
S31500002284183CC2F2000CDCE900E2C2619368036206
S31500002294596091600EF10101C0F828C0CCF8001015
S315000022A434E0D0E9021342698B608168596053684F
S315000022B4011D8B4201D1C368536000234361136837
S315000022C440F6FC2C013B1360C2F2000CC26ADCF837
S315000022D400309A4288BFCCF8002040F6982C02EBD6
S315000022E48202C2F2000C0CEB82025268826093688E
S315000022F4C36059609160C16A01EB81010CEB8102F4
S3150000230442615CF8212001324CF8212040F6682114
S31500002314C2F20001C06A0968C96A884291BF0020F6
S3150000232440F61431C2F20001012088BF086080BD66
S3150000233442F6247042F6325242F66043C0F200007E
S31500002344C0F20002C0F2000341F2F541FEF748FD77
S3150000235440F64031C2F200010968016040F694215A
S31500002364C2F2000109684160704770B568B30D4652
S31500002374D9B30446FEF757F840F6942EC2F2000E7F
S31500002384DEF8003029684A1C16D040F6403CC2F2FA
S31500002394000CD4E90002DCF80060864201D09342C6
S315000023A40CD29A1A914209D9881A2860DCF80000DE
S315000023B42060DEF800006060002402E000200124B2
S315000023C42860FEF75BF8204670BD42F6247042F69C
S315000023D4B37242F6D243C0F20000C0F20002C0F269
S315000023E4000341F2A551FEF7FBFC42F6247042F6C7
S315000023F4B37242F69F53C0F20000C0F20002C0F26C
S31500002404000341F2A651FEF7EBFC40F61430C2F28B
S31500002414000001210160704740F66820C2F2000006
S315000024240068704740F67020C2F20000006850B1A0
S3150000243440F69020C2F20000006800284FF0000029
S3150000244408BF022070470120704770B5002844D1A8
S3150000245440F69020C2F200000C4601681546013190
S315000024640160FDF7E0FF40F66826C2F20006306818
S31500002474806DB0B1FEF702F8FFF716FCFDF7D3FF47
S315000024843068856D2DB131680020002C08BF681EA8
S3150000249488653068002180F85C10FDF7EFFF284658
S315000024A470BD3068012180F85C10FDF7E7FF002D50
S315000024B4E2D028460121FFF7A4FBFFF7F5FB00282D
S315000024C4DCD14EF60450CEF200004FF0805101608C
S315000024D4BFF34F8FBFF36F8FD0E742F6247043F2FA
S315000024E4AD1242F6DC43C0F20000C0F20002C0F2B4
S315000024F4000341F6C751FEF773FCF0B581B000281E
S3150000250400F07D80002940F08A8017460546FEF7D4
S315000025141BF8EFF31180102181F31188022295F83C
S315000025245C1085F85C20AA6D012902F10102AA65F6
S3150000253461D1A96A002940F0828040F69021C2F256
S315000025440001096881B140F61831C2F20001D1E9EF
S31500002554002305F11806EB619C6801322C62666063
S315000025649E60A9620A6034E0D5E902136A698B6049
S31500002574A96859605368291D8B4201D1EB685360E1
S3150000258400236B61136840F6FC2C013B1360C2F216
S31500002594000CEA6ADCF800309A4240F6982388BFB9
S315000025A4CCF8002002EB8202C2F2000303EB8202A3
S315000025B45268AA609468EC6061609160E96A01EB14
S315000025C4810103EB81026A6153F82120013243F849
S315000025D4212040F66822C2F20002E96A1268D26A31
S315000025E4914208D90FB10121396040F61431C2F283
S315000025F4000101220A6080F3118801B0F0BD42F6A1
S31500002604247042F6626242F6D763C0F20000C0F25A
S315000026140002C0F200034FF4FE51FEF7E1FB42F65E
S31500002624247042F6626242F64B53C0F20000C0F2D6
S315000026340002C0F2000341F6C171FEF7D1FB42F677
S31500002644247042F6626243F2F503C0F20000C0F25F
S315000026540002C0F2000341F6EA71FEF7C1FBD4D4CE
S3150000266440F698244EF60455C2F20004CEF2000554
S315000026744FF08056FFF788FC2068022822BF2E60A0
S31500002684BFF34F8FBFF36F8FFDF752FFF2E780B5AD
S3150000269486B000F03BF840F66C30C2F200000068E9
S315000026A420B30020CDE9040005A804A903AAFDF778
S315000026B4E6FDDDE903200321DDF814C0CDE90010B1
S315000026C442F28D7043F2C201C0F20000C0F2000172
S315000026D40023CDF808C0FFF769F940F67031C2F25D
S315000026E40001086010B1012006B080BD42F68130B9
S315000026F443F2331242F6AD53C0F20000C0F20002B8
S31500002704C0F200034FF4A371FEF76AFB70B582B002
S31500002714FDF789FE40F66C36C2F20006306868BBE7
S3150000272440F68034C2F200042046FEF7F1FC40F67F
S315000027349435C2F200052846FEF7EAFC40F67430EA
S31500002744C2F20000046040F67830C2F2000040F69F
S31500002754F03240F6A83305600025C2F20002C2F248
S3150000276400030A200C210095FEF76DFD306028B1A8
S3150000277442F6BE31C0F20001FFF7C2F802B0BDE86E
S315000027847040FDF77BBED4D484B040F6743840F66E
S315000027946C35C2F2000801ACC2F200054FF0000B22
S315000027A4EA4600BFD8F80000D0F80090B9F1000F4F
S315000027B402D0C068066800E00026FFF71AFA204631
S315000027C400F0A2F8019919B1FFF76EFA2EE000BFE6
S315000027D40746B9F1000F08D0BE4206D8FFF764FADF
S315000027E43046394600F0BBF820E0B9F1000F01D0BD
S315000027F4002208E040F67830C2F200000068006863
S31500002804B0FA80F042092868F11BFFF7ACF8FFF72D
S315000028144BFA58B94EF60450CEF200004FF08051F0
S315000028240160BFF34F8FBFF36F8F00BF2868CDE9F8
S3150000283402BBCDF804B000BF21460022FEF7C0FE5D
S315000028440028AFD0019800284CD4039E706910B1BB
S31500002854301DFEF788FC504600F056F80199013900
S3150000286408293FD80746DFE801F005051C231C05A7
S31500002874051C230096F82400029BB16940F0010070
S3150000288486F82400194430463A4600F0A0F848B3C6
S3150000289496F8240041071BD400F0FA0086F82400B9
S315000028A41DE096F8240000F0FE0086F8240019E0E6
S315000028B496F8240040F00101029886F82410B061CD
S315000028C490B1C11930463A463B4600F080F809E01B
S315000028D40298B1693A460144304600F061F8316A1B
S315000028E4304688472868A7E742F6813043F25F02FC
S315000028F443F2DE13C0F20000C0F20002C0F200038D
S315000029044FF48261FEF76CFAF0B581B00446FFF726
S3150000291435FC40F67C36C2F200063168054688422C
S315000029240ED240F67437C2F2000700BF3868016859
S3150000293441B1C0684FF0FF31006800F010F8F5E7C8
S31500002944002007E040F67831C2F200010A68086008
S3150000295401203A6020602846356001B0F0BD70B5AC
S3150000296440F67432C2F2000212680646D2680D4678
S31500002974D468201DFEF7F7FB94F82400410704D41D
S3150000298400F0FA0084F8240004E0204631462A4682
S3150000299400F006F8216A2046BDE870400847D4D402
S315000029A470B50546806914460E460144284600BFA4
S315000029B4334600F00CF848B1A869296A064428464B
S315000029C48847A869224681192846F1E770BD8C46D6
S315000029D4014641F804CF9445006108D940F67430A5
S315000029E49A42C2F200000AD29C4508D30DE08069DF
S315000029F4D21A824209D240F67830C2F2000080B57B
S31500002A040068FEF793FB002080BD012070470A464C
S31500002A14002100F009B810B500239A4203D0CC5C1B
S31500002A24C4540133F9E710BD00239A4208BF704726
S31500002A34C1540133F9E7D4D410B505490446054A0F
S31500002A44FFF7E9FF044805492044FFF7E0FF10BDFE
S31500002A544400000000000000000000000000000028
S31500002A640249401A02490860704700BF0800000086
S31500002A74680C00200000000075784372697469636D
S31500002A84616C4E657374696E67007651756575651C
S31500002A94416464546F5265676973747279002E2EAB
S31500002AA42F72612F6673702F7372632F726D5F6658
S31500002AB472656572746F735F706F72742F706F7264
S31500002AC4742E630076506F7274456E746572437229
S31500002AD469746963616C00282028202820282070E6
S31500002AE47844656C617965645461736B4C6973747D
S31500002AF420292D3E75784E756D6265724F66497450
S31500002B04656D73203D3D20282055426173655479D7
S31500002B1470655F74202920302029203F2028202832
S31500002B242042617365547970655F742029203120D1
S31500002B3429203A202820282042617365547970653B
S31500002B445F74202920302029202920290076546109
S31500002B54736B537769746368436F6E746578740036
S31500002B64707578537461636B42756666657220216D
S31500002B743D202828766F69642A293029002E2E2FB5
S31500002B8472612F6177732F4672656552544F532FC6
S31500002B944672656552544F532F536F757263652F92
S31500002BA474696D6572732E630075635356434E756F
S31500002BB46D626572203C3D203300546D725100787D
S31500002BC4517565756547656E6572696353656E64AF
S31500002BD4002128202820785461736B476574536359
S31500002BE4686564756C657253746174652829203D43
S31500002BF43D202820282042617365547970655F74EE
S31500002C0420292030202920292026262028207854EF
S31500002C1469636B73546F5761697420213D203020BA
S31500002C24292029005F5F4E5649435F4765745072F9
S31500002C34696F7269747947726F7570696E6728294E
S31500002C44203C3D202838202D203429202D203100F9
S31500002C542820707851756575652029007078556E41
S31500002C64626C6F636B65645443420070785374619D
S31500002C747469635175657565007848616E646C6541
S31500002C8400212820282078436F7079506F73697467
S31500002C94696F6E203D3D20282028204261736554CB
S31500002CA47970655F74202920322029202920262660
S31500002CB4202820707851756575652D3E75784C65AC
S31500002CC46E67746820213D20312029202900707800
S31500002CD454696D654F7574007578496E64657854EA
S31500002CE46F576169744F6E203C202831290075782E
S31500002CF45072696F72697479203C202835290078EE
S31500002D045461736B526573756D65416C6C007654D2
S31500002D1461736B506C6163654F6E4576656E744C7A
S31500002D246973745265737472696374656400785464
S31500002D3461736B52656D6F766546726F6D45766528
S31500002D446E744C697374007578496E646578546F53
S31500002D544E6F74696679203C2028312900707854B6
S31500002D6461736B42756666657220213D202828765C
S31500002D746F69642A29302900707276496E6974690C
S31500002D84616C6973654E65775461736B00426C6957
S31500002D946E6B792054687265616400707854696357
S31500002DA46B73546F57616974007852657475726EEB
S31500002DB4002828285343425F54797065202A292025
S31500002DC4282830784530303045303030554C29206D
S31500002DD42B20307830443030554C2920292D3E495B
S31500002DE4435352202620283078314646554C202914
S31500002DF429203D3D2030007853697A65203D3D20E9
S31500002E0473697A656F66282051756575655F7420E8
S31500002E14290078517565756553656D6170686F72C3
S31500002E246554616B650078517565756547656E65B2
S31500002E34726963437265617465537461746963008E
S31500002E4476506F727453564348616E646C65725F54
S31500002E54430070784576656E744C697374007654D5
S31500002E6461736B47656E657269634E6F74696679E3
S31500002E744769766546726F6D495352007852657498
S31500002E8475726E20213D2028202D3120290078518D
S31500002E9475657565437265617465436F756E7469AE
S31500002EA46E6753656D6170686F726553746174699A
S31500002EB46300785175657565526563656976650065
S31500002EC4785461736B496E6372656D656E7454698B
S31500002ED4636B00785461736B546F4E6F74696679D3
S31500002EE4002E2E2F72612F6177732F4672656552FD
S31500002EF4544F532F4672656552544F532F536F7573
S31500002F047263652F71756575652E630070727643FD
S31500002F1472656174655374617469635461736B009B
S31500002F242E2E2F72612F6177732F46726565525468
S31500002F344F532F4672656552544F532F536F757214
S31500002F4463652F7461736B732E630070784E6577B7
S31500002F545175657565002128202820282070764241
S31500002F6475666665722029203D3D202828766F699E
S31500002F74642A293029202920262620282028207062
S31500002F8478517565756520292D3E75784974656D8A
S31500002F9453697A6520213D20282055426173655482
S31500002FA47970655F742029203055202920290078FE
S31500002FB45461736B436865636B466F7254696D65E0
S31500002FC44F75740076506F727456616C69646174DF
S31500002FD465496E746572727570745072696F726940
S31500002FE474790070785175657565007852657475E5
S31500002FF4726E20213D2028202820282042617365F6
S31500003004547970655F7420292030202920290076A0
S315000030145461736B506C6163654F6E4576656E746F
S315000030244C697374007851756575650076546173DF
S315000030346B53746172745363686564756C6572006E
S3150000304475785363686564756C65725375737065DA
S315000030546E64656420213D2030550070727650728E
S315000030646F636573735265636569766564436F6DF3
S315000030746D616E647300756C43757272656E74501F
S3150000308472696F72697479203E3D20282828283198
S315000030942929203C3C202838202D20342929292080
S315000030A43E3E202838202D20342900785175657538
S315000030B46547656E65726963526573657400546D20
S315000030C472205376630076506F7274457869744340
S315000030D47269746963616C00707851756575652DE4
S315000030E43E75784974656D53697A65203D3D203097
S315000030F4002820282026282070785443422D3E7824
S315000031044576656E744C6973744974656D2029201F
S31500003114292D3E7078436F6E7461696E657220293D
S31500003124203D3D202828766F69642A2930290078B5
S3150000313454696D657243726561746554696D65722F
S315000031445461736B007578546F705072696F72694D
S31500003154747900212820282070764974656D546F8F
S315000031645175657565203D3D202828766F69642A6A
S315000031742930292029202626202820707851756593
S3150000318475652D3E75784974656D53697A65202198
S315000031943D2028205542617365547970655F74201B
S315000031A4292030552029202900756C5461736B47FA
S315000031B4656E657269634E6F7469667954616B6591
S315000031C4007853697A65203D3D2073697A656F6698
S315000031D428205443425F74202900282070785469BB
S315000031E46D65722D3E7854696D6572506572696FAE
S315000031F464496E5469636B73203E2030202900D4E1
S3150000320400000000000000000000000000000000B4
S3150000321400000000000000000000000000000000A4
S315000032240000FFFFFFFFFFFFDFDFDFDFDFDF000060
S315000032340000000000000000000000000000000084
S315000032440000000000000000000000000000000074
S315000032540000000000000000000000000000010063
S315000032640A00000000800000000A000019010000A6
S31500003274000000000432000000800000000000008E
S315000032840080000001000000008000000200000031
S31500003294008000000300000000800000040000001D
S315000032A40000000005000000000000000600000009
S315000032B40000000008000000008000000D0000006F
S315000032C4000000000E000000000000000F000000D7
S315000032D4000C010700010000000C010701010000B9
S315000032E4000C0104020100000000000005010000BA
S315000032F400000000060100000000000007010000B5
S31500003304000C010008010000000C01050901000081
S31500003314000C01050A010000000000000B0100007A
S31500003324000000000D01000000000000050200007E
S31500003334040C010006020000040C01000702000050
S315000033440000000008020000000C01000003000059
S315000033540000000001030000004000000403000018
S31500003364050C000000040000050C00000104000028
S315000033740000000002040000000000000304000036
S31500003384000000000704000000000000080400001C
S315000033940000000009040000000C01040A040000F7
S315000033A4000C01040B0400000000000000050000EE
S315000033B4270000007C32000000000000C600020462
S315000033C403040404000000200000002003000000A1
S315000033D4E8330000040000000C3400000100000083
S315000033E4C833000000000020000000200000000395
S315000033F4180400206C0C0020000000036C0C002054
S315000034046C0C0020000000030000002000000020D7
S315000034140000006000010C030000002000000020F2
S315000034240000000800000203000000200000002045
S3150000343444000000000001036C0C00206C0C00200A
S31500003444440000000000010301000200080010000F
S315000034542000D4D40400000000000406362E342EC6
S3150000346430004275696C7420776974682052656E01
S315000034746573617320416476616E63656420466C8E
S31500003484657869626C6520536F667477617265202E
S315000034945061636B6167652076657273696F6E2030
S30B000034A4362E342E300026
S3090100A100FFFFFFFF58
S3090100A200FFFDFFFF59
S70500000FC922
